{
  "address": "0x31df392D8e43f8E756422c6D2a664B5059d9c27c",
  "_format": "hh-sol-artifact-1",
  "contractName": "CreatorSBT",
  "sourceName": "contracts/CreatorSBT.sol",
  "abi": [
    {
      "inputs": [],
      "stateMutability": "nonpayable",
      "type": "constructor"
    },
    {
      "anonymous": false,
      "inputs": [
        {
          "indexed": true,
          "internalType": "address",
          "name": "owner",
          "type": "address"
        },
        {
          "indexed": true,
          "internalType": "address",
          "name": "approved",
          "type": "address"
        },
        {
          "indexed": true,
          "internalType": "uint256",
          "name": "tokenId",
          "type": "uint256"
        }
      ],
      "name": "Approval",
      "type": "event"
    },
    {
      "anonymous": false,
      "inputs": [
        {
          "indexed": true,
          "internalType": "address",
          "name": "owner",
          "type": "address"
        },
        {
          "indexed": true,
          "internalType": "address",
          "name": "operator",
          "type": "address"
        },
        {
          "indexed": false,
          "internalType": "bool",
          "name": "approved",
          "type": "bool"
        }
      ],
      "name": "ApprovalForAll",
      "type": "event"
    },
    {
      "anonymous": false,
      "inputs": [
        {
          "indexed": true,
          "internalType": "address",
          "name": "previousOwner",
          "type": "address"
        },
        {
          "indexed": true,
          "internalType": "address",
          "name": "newOwner",
          "type": "address"
        }
      ],
      "name": "OwnershipTransferred",
      "type": "event"
    },
    {
      "anonymous": false,
      "inputs": [
        {
          "indexed": true,
          "internalType": "address",
          "name": "from",
          "type": "address"
        },
        {
          "indexed": true,
          "internalType": "address",
          "name": "to",
          "type": "address"
        },
        {
          "indexed": true,
          "internalType": "uint256",
          "name": "tokenId",
          "type": "uint256"
        }
      ],
      "name": "Transfer",
      "type": "event"
    },
    {
      "inputs": [
        {
          "internalType": "address",
          "name": "to",
          "type": "address"
        },
        {
          "internalType": "uint256",
          "name": "tokenId",
          "type": "uint256"
        }
      ],
      "name": "approve",
      "outputs": [],
      "stateMutability": "nonpayable",
      "type": "function"
    },
    {
      "inputs": [
        {
          "internalType": "address",
          "name": "owner",
          "type": "address"
        }
      ],
      "name": "balanceOf",
      "outputs": [
        {
          "internalType": "uint256",
          "name": "",
          "type": "uint256"
        }
      ],
      "stateMutability": "view",
      "type": "function"
    },
    {
      "inputs": [
        {
          "internalType": "uint256",
          "name": "tokenId",
          "type": "uint256"
        }
      ],
      "name": "burn",
      "outputs": [],
      "stateMutability": "nonpayable",
      "type": "function"
    },
    {
      "inputs": [],
      "name": "burnProfile",
      "outputs": [],
      "stateMutability": "nonpayable",
      "type": "function"
    },
    {
      "inputs": [
        {
          "internalType": "uint256",
          "name": "tokenId",
          "type": "uint256"
        }
      ],
      "name": "getApproved",
      "outputs": [
        {
          "internalType": "address",
          "name": "",
          "type": "address"
        }
      ],
      "stateMutability": "view",
      "type": "function"
    },
    {
      "inputs": [
        {
          "internalType": "address",
          "name": "owner",
          "type": "address"
        },
        {
          "internalType": "address",
          "name": "operator",
          "type": "address"
        }
      ],
      "name": "isApprovedForAll",
      "outputs": [
        {
          "internalType": "bool",
          "name": "",
          "type": "bool"
        }
      ],
      "stateMutability": "view",
      "type": "function"
    },
    {
      "inputs": [
        {
          "internalType": "string",
          "name": "_uri",
          "type": "string"
        }
      ],
      "name": "mintProfile",
      "outputs": [],
      "stateMutability": "nonpayable",
      "type": "function"
    },
    {
      "inputs": [],
      "name": "name",
      "outputs": [
        {
          "internalType": "string",
          "name": "",
          "type": "string"
        }
      ],
      "stateMutability": "view",
      "type": "function"
    },
    {
      "inputs": [],
      "name": "owner",
      "outputs": [
        {
          "internalType": "address",
          "name": "",
          "type": "address"
        }
      ],
      "stateMutability": "view",
      "type": "function"
    },
    {
      "inputs": [
        {
          "internalType": "uint256",
          "name": "tokenId",
          "type": "uint256"
        }
      ],
      "name": "ownerOf",
      "outputs": [
        {
          "internalType": "address",
          "name": "",
          "type": "address"
        }
      ],
      "stateMutability": "view",
      "type": "function"
    },
    {
      "inputs": [
        {
          "internalType": "address",
          "name": "_owner",
          "type": "address"
        }
      ],
      "name": "profileURI",
      "outputs": [
        {
          "internalType": "string",
          "name": "",
          "type": "string"
        }
      ],
      "stateMutability": "view",
      "type": "function"
    },
    {
      "inputs": [],
      "name": "renounceOwnership",
      "outputs": [],
      "stateMutability": "nonpayable",
      "type": "function"
    },
    {
      "inputs": [
        {
          "internalType": "address",
          "name": "from",
          "type": "address"
        },
        {
          "internalType": "address",
          "name": "to",
          "type": "address"
        },
        {
          "internalType": "uint256",
          "name": "tokenId",
          "type": "uint256"
        }
      ],
      "name": "safeTransferFrom",
      "outputs": [],
      "stateMutability": "nonpayable",
      "type": "function"
    },
    {
      "inputs": [
        {
          "internalType": "address",
          "name": "from",
          "type": "address"
        },
        {
          "internalType": "address",
          "name": "to",
          "type": "address"
        },
        {
          "internalType": "uint256",
          "name": "tokenId",
          "type": "uint256"
        },
        {
          "internalType": "bytes",
          "name": "_data",
          "type": "bytes"
        }
      ],
      "name": "safeTransferFrom",
      "outputs": [],
      "stateMutability": "nonpayable",
      "type": "function"
    },
    {
      "inputs": [
        {
          "internalType": "address",
          "name": "operator",
          "type": "address"
        },
        {
          "internalType": "bool",
          "name": "approved",
          "type": "bool"
        }
      ],
      "name": "setApprovalForAll",
      "outputs": [],
      "stateMutability": "nonpayable",
      "type": "function"
    },
    {
      "inputs": [
        {
          "internalType": "bytes4",
          "name": "interfaceId",
          "type": "bytes4"
        }
      ],
      "name": "supportsInterface",
      "outputs": [
        {
          "internalType": "bool",
          "name": "",
          "type": "bool"
        }
      ],
      "stateMutability": "view",
      "type": "function"
    },
    {
      "inputs": [],
      "name": "symbol",
      "outputs": [
        {
          "internalType": "string",
          "name": "",
          "type": "string"
        }
      ],
      "stateMutability": "view",
      "type": "function"
    },
    {
      "inputs": [
        {
          "internalType": "uint256",
          "name": "tokenId",
          "type": "uint256"
        }
      ],
      "name": "tokenURI",
      "outputs": [
        {
          "internalType": "string",
          "name": "",
          "type": "string"
        }
      ],
      "stateMutability": "view",
      "type": "function"
    },
    {
      "inputs": [
        {
          "internalType": "address",
          "name": "from",
          "type": "address"
        },
        {
          "internalType": "address",
          "name": "to",
          "type": "address"
        },
        {
          "internalType": "uint256",
          "name": "tokenId",
          "type": "uint256"
        }
      ],
      "name": "transferFrom",
      "outputs": [],
      "stateMutability": "nonpayable",
      "type": "function"
    },
    {
      "inputs": [
        {
          "internalType": "address",
          "name": "newOwner",
          "type": "address"
        }
      ],
      "name": "transferOwnership",
      "outputs": [],
      "stateMutability": "nonpayable",
      "type": "function"
    },
    {
      "inputs": [
        {
          "internalType": "string",
          "name": "_uri",
          "type": "string"
        }
      ],
      "name": "updateProfile",
      "outputs": [],
      "stateMutability": "nonpayable",
      "type": "function"
    }
  ],
  "bytecode": "0x60806040523480156200001157600080fd5b506040518060400160405280601e81526020017f47656e72657a2043726561746f7220536f756c626f756e6420546f6b656e00008152506040518060400160405280600481526020017f7a53425400000000000000000000000000000000000000000000000000000000815250816000908051906020019062000096929190620001a6565b508060019080519060200190620000af929190620001a6565b505050620000d2620000c6620000d860201b60201c565b620000e060201b60201c565b620002bb565b600033905090565b6000600760009054906101000a900473ffffffffffffffffffffffffffffffffffffffff16905081600760006101000a81548173ffffffffffffffffffffffffffffffffffffffff021916908373ffffffffffffffffffffffffffffffffffffffff1602179055508173ffffffffffffffffffffffffffffffffffffffff168173ffffffffffffffffffffffffffffffffffffffff167f8be0079c531659141344cd1fd0a4f28419497f9722a3daafe3b4186f6b6457e060405160405180910390a35050565b828054620001b49062000256565b90600052602060002090601f016020900481019282620001d8576000855562000224565b82601f10620001f357805160ff191683800117855562000224565b8280016001018555821562000224579182015b828111156200022357825182559160200191906001019062000206565b5b50905062000233919062000237565b5090565b5b808211156200025257600081600090555060010162000238565b5090565b600060028204905060018216806200026f57607f821691505b602082108114156200028657620002856200028c565b5b50919050565b7f4e487b7100000000000000000000000000000000000000000000000000000000600052602260045260246000fd5b6136c580620002cb6000396000f3fe608060405234801561001057600080fd5b50600436106101365760003560e01c8063715018a6116100b8578063b88d4fde1161007c578063b88d4fde14610323578063c87b56dd1461033f578063e985e9c51461036f578063f294e2491461039f578063f2fde38b146103cf578063fc93d023146103eb57610136565b8063715018a6146102a55780638da5cb5b146102af57806395d89b41146102cd578063a22cb465146102eb578063ad55601d1461030757610136565b806323b872dd116100ff57806323b872dd146101f157806342842e0e1461020d57806342966c68146102295780636352211e1461024557806370a082311461027557610136565b80629299e31461013b57806301ffc9a71461015757806306fdde0314610187578063081812fc146101a5578063095ea7b3146101d5575b600080fd5b610155600480360381019061015091906124f5565b6103f5565b005b610171600480360381019061016c91906124a3565b610447565b60405161017e9190612999565b60405180910390f35b61018f610529565b60405161019c91906129b4565b60405180910390f35b6101bf60048036038101906101ba9190612536565b6105bb565b6040516101cc9190612932565b60405180910390f35b6101ef60048036038101906101ea9190612467565b610640565b005b61020b60048036038101906102069190612361565b610758565b005b61022760048036038101906102229190612361565b6107b8565b005b610243600480360381019061023e9190612536565b6107d8565b005b61025f600480360381019061025a9190612536565b610834565b60405161026c9190612932565b60405180910390f35b61028f600480360381019061028a91906122fc565b6108e6565b60405161029c9190612c76565b60405180910390f35b6102ad61099e565b005b6102b7610a26565b6040516102c49190612932565b60405180910390f35b6102d5610a50565b6040516102e291906129b4565b60405180910390f35b6103056004803603810190610300919061242b565b610ae2565b005b610321600480360381019061031c91906124f5565b610af8565b005b61033d600480360381019061033891906123b0565b610be3565b005b61035960048036038101906103549190612536565b610c45565b60405161036691906129b4565b60405180910390f35b61038960048036038101906103849190612325565b610c57565b6040516103969190612999565b60405180910390f35b6103b960048036038101906103b491906122fc565b610ceb565b6040516103c691906129b4565b60405180910390f35b6103e960048036038101906103e491906122fc565b610d42565b005b6103f3610e3a565b005b6000600960003373ffffffffffffffffffffffffffffffffffffffff1673ffffffffffffffffffffffffffffffffffffffff1681526020019081526020016000205490506104438183610e8a565b5050565b60007f80ac58cd000000000000000000000000000000000000000000000000000000007bffffffffffffffffffffffffffffffffffffffffffffffffffffffff1916827bffffffffffffffffffffffffffffffffffffffffffffffffffffffff1916148061051257507f5b5e139f000000000000000000000000000000000000000000000000000000007bffffffffffffffffffffffffffffffffffffffffffffffffffffffff1916827bffffffffffffffffffffffffffffffffffffffffffffffffffffffff1916145b80610522575061052182610efe565b5b9050919050565b60606000805461053890612ecc565b80601f016020809104026020016040519081016040528092919081815260200182805461056490612ecc565b80156105b15780601f10610586576101008083540402835291602001916105b1565b820191906000526020600020905b81548152906001019060200180831161059457829003601f168201915b5050505050905090565b60006105c682610f68565b610605576040517f08c379a00000000000000000000000000000000000000000000000000000000081526004016105fc90612b96565b60405180910390fd5b6004600083815260200190815260200160002060009054906101000a900473ffffffffffffffffffffffffffffffffffffffff169050919050565b600061064b82610834565b90508073ffffffffffffffffffffffffffffffffffffffff168373ffffffffffffffffffffffffffffffffffffffff1614156106bc576040517f08c379a00000000000000000000000000000000000000000000000000000000081526004016106b390612bf6565b60405180910390fd5b8073ffffffffffffffffffffffffffffffffffffffff166106db610fd4565b73ffffffffffffffffffffffffffffffffffffffff16148061070a575061070981610704610fd4565b610c57565b5b610749576040517f08c379a000000000000000000000000000000000000000000000000000000000815260040161074090612ad6565b60405180910390fd5b6107538383610fdc565b505050565b610769610763610fd4565b82611095565b6107a8576040517f08c379a000000000000000000000000000000000000000000000000000000000815260040161079f90612c16565b60405180910390fd5b6107b3838383611173565b505050565b6107d383838360405180602001604052806000815250610be3565b505050565b6107e96107e3610fd4565b82611095565b610828576040517f08c379a000000000000000000000000000000000000000000000000000000000815260040161081f90612c36565b60405180910390fd5b610831816113da565b50565b6000806002600084815260200190815260200160002060009054906101000a900473ffffffffffffffffffffffffffffffffffffffff169050600073ffffffffffffffffffffffffffffffffffffffff168173ffffffffffffffffffffffffffffffffffffffff1614156108dd576040517f08c379a00000000000000000000000000000000000000000000000000000000081526004016108d490612b16565b60405180910390fd5b80915050919050565b60008073ffffffffffffffffffffffffffffffffffffffff168273ffffffffffffffffffffffffffffffffffffffff161415610957576040517f08c379a000000000000000000000000000000000000000000000000000000000815260040161094e90612af6565b60405180910390fd5b600360008373ffffffffffffffffffffffffffffffffffffffff1673ffffffffffffffffffffffffffffffffffffffff168152602001908152602001600020549050919050565b6109a6610fd4565b73ffffffffffffffffffffffffffffffffffffffff166109c4610a26565b73ffffffffffffffffffffffffffffffffffffffff1614610a1a576040517f08c379a0000000000000000000000000000000000000000000000000000000008152600401610a1190612bb6565b60405180910390fd5b610a2460006113e6565b565b6000600760009054906101000a900473ffffffffffffffffffffffffffffffffffffffff16905090565b606060018054610a5f90612ecc565b80601f0160208091040260200160405190810160405280929190818152602001828054610a8b90612ecc565b8015610ad85780601f10610aad57610100808354040283529160200191610ad8565b820191906000526020600020905b815481529060010190602001808311610abb57829003601f168201915b5050505050905090565b610af4610aed610fd4565b83836114ac565b5050565b600073ffffffffffffffffffffffffffffffffffffffff163373ffffffffffffffffffffffffffffffffffffffff161415610b68576040517f08c379a0000000000000000000000000000000000000000000000000000000008152600401610b5f906129d6565b60405180910390fd5b6000610b73336108e6565b14610bb3576040517f08c379a0000000000000000000000000000000000000000000000000000000008152600401610baa90612c56565b60405180910390fd5b610bbd6008611619565b6000610bc9600861162f565b9050610bd5338261163d565b610bdf8183610e8a565b5050565b610bf4610bee610fd4565b83611095565b610c33576040517f08c379a0000000000000000000000000000000000000000000000000000000008152600401610c2a90612c16565b60405180910390fd5b610c3f8484848461165b565b50505050565b6060610c50826116b7565b9050919050565b6000600560008473ffffffffffffffffffffffffffffffffffffffff1673ffffffffffffffffffffffffffffffffffffffff16815260200190815260200160002060008373ffffffffffffffffffffffffffffffffffffffff1673ffffffffffffffffffffffffffffffffffffffff16815260200190815260200160002060009054906101000a900460ff16905092915050565b60606000600960008473ffffffffffffffffffffffffffffffffffffffff1673ffffffffffffffffffffffffffffffffffffffff168152602001908152602001600020549050610d3a81610c45565b915050919050565b610d4a610fd4565b73ffffffffffffffffffffffffffffffffffffffff16610d68610a26565b73ffffffffffffffffffffffffffffffffffffffff1614610dbe576040517f08c379a0000000000000000000000000000000000000000000000000000000008152600401610db590612bb6565b60405180910390fd5b600073ffffffffffffffffffffffffffffffffffffffff168173ffffffffffffffffffffffffffffffffffffffff161415610e2e576040517f08c379a0000000000000000000000000000000000000000000000000000000008152600401610e2590612a16565b60405180910390fd5b610e37816113e6565b50565b6000600960003373ffffffffffffffffffffffffffffffffffffffff1673ffffffffffffffffffffffffffffffffffffffff168152602001908152602001600020549050610e87816107d8565b50565b610e9382610f68565b610ed2576040517f08c379a0000000000000000000000000000000000000000000000000000000008152600401610ec990612b36565b60405180910390fd5b80600660008481526020019081526020016000209080519060200190610ef99291906120e0565b505050565b60007f01ffc9a7000000000000000000000000000000000000000000000000000000007bffffffffffffffffffffffffffffffffffffffffffffffffffffffff1916827bffffffffffffffffffffffffffffffffffffffffffffffffffffffff1916149050919050565b60008073ffffffffffffffffffffffffffffffffffffffff166002600084815260200190815260200160002060009054906101000a900473ffffffffffffffffffffffffffffffffffffffff1673ffffffffffffffffffffffffffffffffffffffff1614159050919050565b600033905090565b816004600083815260200190815260200160002060006101000a81548173ffffffffffffffffffffffffffffffffffffffff021916908373ffffffffffffffffffffffffffffffffffffffff160217905550808273ffffffffffffffffffffffffffffffffffffffff1661104f83610834565b73ffffffffffffffffffffffffffffffffffffffff167f8c5be1e5ebec7d5bd14f71427d1e84f3dd0314c0f7b2291e5b200ac8c7c3b92560405160405180910390a45050565b60006110a082610f68565b6110df576040517f08c379a00000000000000000000000000000000000000000000000000000000081526004016110d690612ab6565b60405180910390fd5b60006110ea83610834565b90508073ffffffffffffffffffffffffffffffffffffffff168473ffffffffffffffffffffffffffffffffffffffff16148061112c575061112b8185610c57565b5b8061116a57508373ffffffffffffffffffffffffffffffffffffffff16611152846105bb565b73ffffffffffffffffffffffffffffffffffffffff16145b91505092915050565b8273ffffffffffffffffffffffffffffffffffffffff1661119382610834565b73ffffffffffffffffffffffffffffffffffffffff16146111e9576040517f08c379a00000000000000000000000000000000000000000000000000000000081526004016111e090612a36565b60405180910390fd5b600073ffffffffffffffffffffffffffffffffffffffff168273ffffffffffffffffffffffffffffffffffffffff161415611259576040517f08c379a000000000000000000000000000000000000000000000000000000000815260040161125090612a76565b60405180910390fd5b611264838383611809565b61126f600082610fdc565b6001600360008573ffffffffffffffffffffffffffffffffffffffff1673ffffffffffffffffffffffffffffffffffffffff16815260200190815260200160002060008282546112bf9190612de2565b925050819055506001600360008473ffffffffffffffffffffffffffffffffffffffff1673ffffffffffffffffffffffffffffffffffffffff16815260200190815260200160002060008282546113169190612d5b565b92505081905550816002600083815260200190815260200160002060006101000a81548173ffffffffffffffffffffffffffffffffffffffff021916908373ffffffffffffffffffffffffffffffffffffffff160217905550808273ffffffffffffffffffffffffffffffffffffffff168473ffffffffffffffffffffffffffffffffffffffff167fddf252ad1be2c89b69c2b068fc378daa952ba7f163c4a11628f55a4df523b3ef60405160405180910390a46113d583838361190c565b505050565b6113e381611911565b50565b6000600760009054906101000a900473ffffffffffffffffffffffffffffffffffffffff16905081600760006101000a81548173ffffffffffffffffffffffffffffffffffffffff021916908373ffffffffffffffffffffffffffffffffffffffff1602179055508173ffffffffffffffffffffffffffffffffffffffff168173ffffffffffffffffffffffffffffffffffffffff167f8be0079c531659141344cd1fd0a4f28419497f9722a3daafe3b4186f6b6457e060405160405180910390a35050565b8173ffffffffffffffffffffffffffffffffffffffff168373ffffffffffffffffffffffffffffffffffffffff16141561151b576040517f08c379a000000000000000000000000000000000000000000000000000000000815260040161151290612a96565b60405180910390fd5b80600560008573ffffffffffffffffffffffffffffffffffffffff1673ffffffffffffffffffffffffffffffffffffffff16815260200190815260200160002060008473ffffffffffffffffffffffffffffffffffffffff1673ffffffffffffffffffffffffffffffffffffffff16815260200190815260200160002060006101000a81548160ff0219169083151502179055508173ffffffffffffffffffffffffffffffffffffffff168373ffffffffffffffffffffffffffffffffffffffff167f17307eab39ab6107e8899845ad3d59bd9653f200f220920489ca2b5937696c318360405161160c9190612999565b60405180910390a3505050565b6001816000016000828254019250508190555050565b600081600001549050919050565b611657828260405180602001604052806000815250611964565b5050565b611666848484611173565b611672848484846119bf565b6116b1576040517f08c379a00000000000000000000000000000000000000000000000000000000081526004016116a8906129f6565b60405180910390fd5b50505050565b60606116c282610f68565b611701576040517f08c379a00000000000000000000000000000000000000000000000000000000081526004016116f890612b76565b60405180910390fd5b600060066000848152602001908152602001600020805461172190612ecc565b80601f016020809104026020016040519081016040528092919081815260200182805461174d90612ecc565b801561179a5780601f1061176f5761010080835404028352916020019161179a565b820191906000526020600020905b81548152906001019060200180831161177d57829003601f168201915b5050505050905060006117ab611b56565b90506000815114156117c1578192505050611804565b6000825111156117f65780826040516020016117de92919061290e565b60405160208183030381529060405292505050611804565b6117ff84611b6d565b925050505b919050565b611814838383611c14565b600073ffffffffffffffffffffffffffffffffffffffff168373ffffffffffffffffffffffffffffffffffffffff16141561188e5780600960008473ffffffffffffffffffffffffffffffffffffffff1673ffffffffffffffffffffffffffffffffffffffff168152602001908152602001600020819055505b600073ffffffffffffffffffffffffffffffffffffffff168273ffffffffffffffffffffffffffffffffffffffff16141561190757600960008473ffffffffffffffffffffffffffffffffffffffff1673ffffffffffffffffffffffffffffffffffffffff168152602001908152602001600020600090555b505050565b505050565b61191a81611c19565b600060066000838152602001908152602001600020805461193a90612ecc565b905014611961576006600082815260200190815260200160002060006119609190612166565b5b50565b61196e8383611d36565b61197b60008484846119bf565b6119ba576040517f08c379a00000000000000000000000000000000000000000000000000000000081526004016119b1906129f6565b60405180910390fd5b505050565b60006119e08473ffffffffffffffffffffffffffffffffffffffff16611f10565b15611b49578373ffffffffffffffffffffffffffffffffffffffff1663150b7a02611a09610fd4565b8786866040518563ffffffff1660e01b8152600401611a2b949392919061294d565b602060405180830381600087803b158015611a4557600080fd5b505af1925050508015611a7657506040513d601f19601f82011682018060405250810190611a7391906124cc565b60015b611af9573d8060008114611aa6576040519150601f19603f3d011682016040523d82523d6000602084013e611aab565b606091505b50600081511415611af1576040517f08c379a0000000000000000000000000000000000000000000000000000000008152600401611ae8906129f6565b60405180910390fd5b805181602001fd5b63150b7a0260e01b7bffffffffffffffffffffffffffffffffffffffffffffffffffffffff1916817bffffffffffffffffffffffffffffffffffffffffffffffffffffffff191614915050611b4e565b600190505b949350505050565b606060405180602001604052806000815250905090565b6060611b7882610f68565b611bb7576040517f08c379a0000000000000000000000000000000000000000000000000000000008152600401611bae90612bd6565b60405180910390fd5b6000611bc1611b56565b90506000815111611be15760405180602001604052806000815250611c0c565b80611beb84611f33565b604051602001611bfc92919061290e565b6040516020818303038152906040525b915050919050565b505050565b6000611c2482610834565b9050611c3281600084611809565b611c3d600083610fdc565b6001600360008373ffffffffffffffffffffffffffffffffffffffff1673ffffffffffffffffffffffffffffffffffffffff1681526020019081526020016000206000828254611c8d9190612de2565b925050819055506002600083815260200190815260200160002060006101000a81549073ffffffffffffffffffffffffffffffffffffffff021916905581600073ffffffffffffffffffffffffffffffffffffffff168273ffffffffffffffffffffffffffffffffffffffff167fddf252ad1be2c89b69c2b068fc378daa952ba7f163c4a11628f55a4df523b3ef60405160405180910390a4611d328160008461190c565b5050565b600073ffffffffffffffffffffffffffffffffffffffff168273ffffffffffffffffffffffffffffffffffffffff161415611da6576040517f08c379a0000000000000000000000000000000000000000000000000000000008152600401611d9d90612b56565b60405180910390fd5b611daf81610f68565b15611def576040517f08c379a0000000000000000000000000000000000000000000000000000000008152600401611de690612a56565b60405180910390fd5b611dfb60008383611809565b6001600360008473ffffffffffffffffffffffffffffffffffffffff1673ffffffffffffffffffffffffffffffffffffffff1681526020019081526020016000206000828254611e4b9190612d5b565b92505081905550816002600083815260200190815260200160002060006101000a81548173ffffffffffffffffffffffffffffffffffffffff021916908373ffffffffffffffffffffffffffffffffffffffff160217905550808273ffffffffffffffffffffffffffffffffffffffff16600073ffffffffffffffffffffffffffffffffffffffff167fddf252ad1be2c89b69c2b068fc378daa952ba7f163c4a11628f55a4df523b3ef60405160405180910390a4611f0c6000838361190c565b5050565b6000808273ffffffffffffffffffffffffffffffffffffffff163b119050919050565b60606000821415611f7b576040518060400160405280600181526020017f300000000000000000000000000000000000000000000000000000000000000081525090506120db565b600082905060005b60008214611fad578080611f9690612f2f565b915050600a82611fa69190612db1565b9150611f83565b60008167ffffffffffffffff811115611fef577f4e487b7100000000000000000000000000000000000000000000000000000000600052604160045260246000fd5b6040519080825280601f01601f1916602001820160405280156120215781602001600182028036833780820191505090505b5090505b600085146120d45760018261203a9190612de2565b9150600a856120499190612f78565b60306120559190612d5b565b60f81b818381518110612091577f4e487b7100000000000000000000000000000000000000000000000000000000600052603260045260246000fd5b60200101907effffffffffffffffffffffffffffffffffffffffffffffffffffffffffffff1916908160001a905350600a856120cd9190612db1565b9450612025565b8093505050505b919050565b8280546120ec90612ecc565b90600052602060002090601f01602090048101928261210e5760008555612155565b82601f1061212757805160ff1916838001178555612155565b82800160010185558215612155579182015b82811115612154578251825591602001919060010190612139565b5b50905061216291906121a6565b5090565b50805461217290612ecc565b6000825580601f1061218457506121a3565b601f0160209004906000526020600020908101906121a291906121a6565b5b50565b5b808211156121bf5760008160009055506001016121a7565b5090565b60006121d66121d184612cb6565b612c91565b9050828152602081018484840111156121ee57600080fd5b6121f9848285612e8a565b509392505050565b600061221461220f84612ce7565b612c91565b90508281526020810184848401111561222c57600080fd5b612237848285612e8a565b509392505050565b60008135905061224e81613633565b92915050565b6000813590506122638161364a565b92915050565b60008135905061227881613661565b92915050565b60008151905061228d81613661565b92915050565b600082601f8301126122a457600080fd5b81356122b48482602086016121c3565b91505092915050565b600082601f8301126122ce57600080fd5b81356122de848260208601612201565b91505092915050565b6000813590506122f681613678565b92915050565b60006020828403121561230e57600080fd5b600061231c8482850161223f565b91505092915050565b6000806040838503121561233857600080fd5b60006123468582860161223f565b92505060206123578582860161223f565b9150509250929050565b60008060006060848603121561237657600080fd5b60006123848682870161223f565b93505060206123958682870161223f565b92505060406123a6868287016122e7565b9150509250925092565b600080600080608085870312156123c657600080fd5b60006123d48782880161223f565b94505060206123e58782880161223f565b93505060406123f6878288016122e7565b925050606085013567ffffffffffffffff81111561241357600080fd5b61241f87828801612293565b91505092959194509250565b6000806040838503121561243e57600080fd5b600061244c8582860161223f565b925050602061245d85828601612254565b9150509250929050565b6000806040838503121561247a57600080fd5b60006124888582860161223f565b9250506020612499858286016122e7565b9150509250929050565b6000602082840312156124b557600080fd5b60006124c384828501612269565b91505092915050565b6000602082840312156124de57600080fd5b60006124ec8482850161227e565b91505092915050565b60006020828403121561250757600080fd5b600082013567ffffffffffffffff81111561252157600080fd5b61252d848285016122bd565b91505092915050565b60006020828403121561254857600080fd5b6000612556848285016122e7565b91505092915050565b61256881612e16565b82525050565b61257781612e28565b82525050565b600061258882612d18565b6125928185612d2e565b93506125a2818560208601612e99565b6125ab81613065565b840191505092915050565b60006125c182612d23565b6125cb8185612d3f565b93506125db818560208601612e99565b6125e481613065565b840191505092915050565b60006125fa82612d23565b6126048185612d50565b9350612614818560208601612e99565b80840191505092915050565b600061262d600f83612d3f565b915061263882613076565b602082019050919050565b6000612650603283612d3f565b915061265b8261309f565b604082019050919050565b6000612673602683612d3f565b915061267e826130ee565b604082019050919050565b6000612696602583612d3f565b91506126a18261313d565b604082019050919050565b60006126b9601c83612d3f565b91506126c48261318c565b602082019050919050565b60006126dc602483612d3f565b91506126e7826131b5565b604082019050919050565b60006126ff601983612d3f565b915061270a82613204565b602082019050919050565b6000612722602c83612d3f565b915061272d8261322d565b604082019050919050565b6000612745603883612d3f565b91506127508261327c565b604082019050919050565b6000612768602a83612d3f565b9150612773826132cb565b604082019050919050565b600061278b602983612d3f565b91506127968261331a565b604082019050919050565b60006127ae602e83612d3f565b91506127b982613369565b604082019050919050565b60006127d1602083612d3f565b91506127dc826133b8565b602082019050919050565b60006127f4603183612d3f565b91506127ff826133e1565b604082019050919050565b6000612817602c83612d3f565b915061282282613430565b604082019050919050565b600061283a602083612d3f565b91506128458261347f565b602082019050919050565b600061285d602f83612d3f565b9150612868826134a8565b604082019050919050565b6000612880602183612d3f565b915061288b826134f7565b604082019050919050565b60006128a3603183612d3f565b91506128ae82613546565b604082019050919050565b60006128c6603083612d3f565b91506128d182613595565b604082019050919050565b60006128e9602483612d3f565b91506128f4826135e4565b604082019050919050565b61290881612e80565b82525050565b600061291a82856125ef565b915061292682846125ef565b91508190509392505050565b6000602082019050612947600083018461255f565b92915050565b6000608082019050612962600083018761255f565b61296f602083018661255f565b61297c60408301856128ff565b818103606083015261298e818461257d565b905095945050505050565b60006020820190506129ae600083018461256e565b92915050565b600060208201905081810360008301526129ce81846125b6565b905092915050565b600060208201905081810360008301526129ef81612620565b9050919050565b60006020820190508181036000830152612a0f81612643565b9050919050565b60006020820190508181036000830152612a2f81612666565b9050919050565b60006020820190508181036000830152612a4f81612689565b9050919050565b60006020820190508181036000830152612a6f816126ac565b9050919050565b60006020820190508181036000830152612a8f816126cf565b9050919050565b60006020820190508181036000830152612aaf816126f2565b9050919050565b60006020820190508181036000830152612acf81612715565b9050919050565b60006020820190508181036000830152612aef81612738565b9050919050565b60006020820190508181036000830152612b0f8161275b565b9050919050565b60006020820190508181036000830152612b2f8161277e565b9050919050565b60006020820190508181036000830152612b4f816127a1565b9050919050565b60006020820190508181036000830152612b6f816127c4565b9050919050565b60006020820190508181036000830152612b8f816127e7565b9050919050565b60006020820190508181036000830152612baf8161280a565b9050919050565b60006020820190508181036000830152612bcf8161282d565b9050919050565b60006020820190508181036000830152612bef81612850565b9050919050565b60006020820190508181036000830152612c0f81612873565b9050919050565b60006020820190508181036000830152612c2f81612896565b9050919050565b60006020820190508181036000830152612c4f816128b9565b9050919050565b60006020820190508181036000830152612c6f816128dc565b9050919050565b6000602082019050612c8b60008301846128ff565b92915050565b6000612c9b612cac565b9050612ca78282612efe565b919050565b6000604051905090565b600067ffffffffffffffff821115612cd157612cd0613036565b5b612cda82613065565b9050602081019050919050565b600067ffffffffffffffff821115612d0257612d01613036565b5b612d0b82613065565b9050602081019050919050565b600081519050919050565b600081519050919050565b600082825260208201905092915050565b600082825260208201905092915050565b600081905092915050565b6000612d6682612e80565b9150612d7183612e80565b9250827fffffffffffffffffffffffffffffffffffffffffffffffffffffffffffffffff03821115612da657612da5612fa9565b5b828201905092915050565b6000612dbc82612e80565b9150612dc783612e80565b925082612dd757612dd6612fd8565b5b828204905092915050565b6000612ded82612e80565b9150612df883612e80565b925082821015612e0b57612e0a612fa9565b5b828203905092915050565b6000612e2182612e60565b9050919050565b60008115159050919050565b60007fffffffff0000000000000000000000000000000000000000000000000000000082169050919050565b600073ffffffffffffffffffffffffffffffffffffffff82169050919050565b6000819050919050565b82818337600083830152505050565b60005b83811015612eb7578082015181840152602081019050612e9c565b83811115612ec6576000848401525b50505050565b60006002820490506001821680612ee457607f821691505b60208210811415612ef857612ef7613007565b5b50919050565b612f0782613065565b810181811067ffffffffffffffff82111715612f2657612f25613036565b5b80604052505050565b6000612f3a82612e80565b91507fffffffffffffffffffffffffffffffffffffffffffffffffffffffffffffffff821415612f6d57612f6c612fa9565b5b600182019050919050565b6000612f8382612e80565b9150612f8e83612e80565b925082612f9e57612f9d612fd8565b5b828206905092915050565b7f4e487b7100000000000000000000000000000000000000000000000000000000600052601160045260246000fd5b7f4e487b7100000000000000000000000000000000000000000000000000000000600052601260045260246000fd5b7f4e487b7100000000000000000000000000000000000000000000000000000000600052602260045260246000fd5b7f4e487b7100000000000000000000000000000000000000000000000000000000600052604160045260246000fd5b6000601f19601f8301169050919050565b7f496e76616c696420616464726573730000000000000000000000000000000000600082015250565b7f4552433732313a207472616e7366657220746f206e6f6e20455243373231526560008201527f63656976657220696d706c656d656e7465720000000000000000000000000000602082015250565b7f4f776e61626c653a206e6577206f776e657220697320746865207a65726f206160008201527f6464726573730000000000000000000000000000000000000000000000000000602082015250565b7f4552433732313a207472616e736665722066726f6d20696e636f72726563742060008201527f6f776e6572000000000000000000000000000000000000000000000000000000602082015250565b7f4552433732313a20746f6b656e20616c7265616479206d696e74656400000000600082015250565b7f4552433732313a207472616e7366657220746f20746865207a65726f2061646460008201527f7265737300000000000000000000000000000000000000000000000000000000602082015250565b7f4552433732313a20617070726f766520746f2063616c6c657200000000000000600082015250565b7f4552433732313a206f70657261746f7220717565727920666f72206e6f6e657860008201527f697374656e7420746f6b656e0000000000000000000000000000000000000000602082015250565b7f4552433732313a20617070726f76652063616c6c6572206973206e6f74206f7760008201527f6e6572206e6f7220617070726f76656420666f7220616c6c0000000000000000602082015250565b7f4552433732313a2062616c616e636520717565727920666f7220746865207a6560008201527f726f206164647265737300000000000000000000000000000000000000000000602082015250565b7f4552433732313a206f776e657220717565727920666f72206e6f6e657869737460008201527f656e7420746f6b656e0000000000000000000000000000000000000000000000602082015250565b7f45524337323155524953746f726167653a2055524920736574206f66206e6f6e60008201527f6578697374656e7420746f6b656e000000000000000000000000000000000000602082015250565b7f4552433732313a206d696e7420746f20746865207a65726f2061646472657373600082015250565b7f45524337323155524953746f726167653a2055524920717565727920666f722060008201527f6e6f6e6578697374656e7420746f6b656e000000000000000000000000000000602082015250565b7f4552433732313a20617070726f76656420717565727920666f72206e6f6e657860008201527f697374656e7420746f6b656e0000000000000000000000000000000000000000602082015250565b7f4f776e61626c653a2063616c6c6572206973206e6f7420746865206f776e6572600082015250565b7f4552433732314d657461646174613a2055524920717565727920666f72206e6f60008201527f6e6578697374656e7420746f6b656e0000000000000000000000000000000000602082015250565b7f4552433732313a20617070726f76616c20746f2063757272656e74206f776e6560008201527f7200000000000000000000000000000000000000000000000000000000000000602082015250565b7f4552433732313a207472616e736665722063616c6c6572206973206e6f74206f60008201527f776e6572206e6f7220617070726f766564000000000000000000000000000000602082015250565b7f4552433732314275726e61626c653a2063616c6c6572206973206e6f74206f7760008201527f6e6572206e6f7220617070726f76656400000000000000000000000000000000602082015250565b7f4d696e74696e67206d6f7265207468616e206f6e65206973206e6f7420616c6c60008201527f6f77656400000000000000000000000000000000000000000000000000000000602082015250565b61363c81612e16565b811461364757600080fd5b50565b61365381612e28565b811461365e57600080fd5b50565b61366a81612e34565b811461367557600080fd5b50565b61368181612e80565b811461368c57600080fd5b5056fea264697066735822122067b84807ac3c3df117e14fcf5130fd9618918eca8f3da65d5531ad11f2b4edf364736f6c63430008040033",
  "linkReferences": {},
  "deployedLinkReferences": {}
}