{
  "address": "0xb17A5b237d9e064c29080dEe6Bc853F5fc0A006B",
  "_format": "hh-sol-artifact-1",
  "contractName": "CreatorTip",
  "sourceName": "contracts/CreatorTip.sol",
  "abi": [
    {
      "inputs": [
        {
          "internalType": "address",
          "name": "creatorSBTAddress",
          "type": "address"
        }
      ],
      "stateMutability": "nonpayable",
      "type": "constructor"
    },
    {
      "anonymous": false,
      "inputs": [
        {
          "indexed": true,
          "internalType": "address",
          "name": "_from",
          "type": "address"
        },
        {
          "indexed": true,
          "internalType": "address",
          "name": "_to",
          "type": "address"
        },
        {
          "indexed": false,
          "internalType": "uint256",
          "name": "amount",
          "type": "uint256"
        }
      ],
      "name": "CreatorTipped",
      "type": "event"
    },
    {
      "anonymous": false,
      "inputs": [
        {
          "indexed": true,
          "internalType": "address",
          "name": "_creator",
          "type": "address"
        },
        {
          "indexed": true,
          "internalType": "address",
          "name": "_to",
          "type": "address"
        },
        {
          "indexed": false,
          "internalType": "uint256",
          "name": "amount",
          "type": "uint256"
        }
      ],
      "name": "CreatorWithdraw",
      "type": "event"
    },
    {
      "anonymous": false,
      "inputs": [
        {
          "indexed": true,
          "internalType": "address",
          "name": "previousOwner",
          "type": "address"
        },
        {
          "indexed": true,
          "internalType": "address",
          "name": "newOwner",
          "type": "address"
        }
      ],
      "name": "OwnershipTransferred",
      "type": "event"
    },
    {
      "stateMutability": "payable",
      "type": "fallback"
    },
    {
      "inputs": [
        {
          "internalType": "address",
          "name": "_address",
          "type": "address"
        }
      ],
      "name": "balanceOf",
      "outputs": [
        {
          "internalType": "uint256",
          "name": "",
          "type": "uint256"
        }
      ],
      "stateMutability": "view",
      "type": "function"
    },
    {
      "inputs": [],
      "name": "owner",
      "outputs": [
        {
          "internalType": "address",
          "name": "",
          "type": "address"
        }
      ],
      "stateMutability": "view",
      "type": "function"
    },
    {
      "inputs": [],
      "name": "renounceOwnership",
      "outputs": [],
      "stateMutability": "nonpayable",
      "type": "function"
    },
    {
      "inputs": [
        {
          "internalType": "address",
          "name": "_creator",
          "type": "address"
        }
      ],
      "name": "tipCreator",
      "outputs": [],
      "stateMutability": "payable",
      "type": "function"
    },
    {
      "inputs": [
        {
          "internalType": "address",
          "name": "newOwner",
          "type": "address"
        }
      ],
      "name": "transferOwnership",
      "outputs": [],
      "stateMutability": "nonpayable",
      "type": "function"
    },
    {
      "inputs": [
        {
          "internalType": "address",
          "name": "_to",
          "type": "address"
        }
      ],
      "name": "withdrawTip",
      "outputs": [],
      "stateMutability": "nonpayable",
      "type": "function"
    },
    {
      "stateMutability": "payable",
      "type": "receive"
    }
  ],
  "bytecode": "0x60806040523480156200001157600080fd5b50604051620010ff380380620010ff833981810160405281019062000037919062000182565b620000576200004b6200009f60201b60201c565b620000a760201b60201c565b80600160006101000a81548173ffffffffffffffffffffffffffffffffffffffff021916908373ffffffffffffffffffffffffffffffffffffffff16021790555050620001fc565b600033905090565b60008060009054906101000a900473ffffffffffffffffffffffffffffffffffffffff169050816000806101000a81548173ffffffffffffffffffffffffffffffffffffffff021916908373ffffffffffffffffffffffffffffffffffffffff1602179055508173ffffffffffffffffffffffffffffffffffffffff168173ffffffffffffffffffffffffffffffffffffffff167f8be0079c531659141344cd1fd0a4f28419497f9722a3daafe3b4186f6b6457e060405160405180910390a35050565b6000815190506200017c81620001e2565b92915050565b6000602082840312156200019557600080fd5b6000620001a5848285016200016b565b91505092915050565b6000620001bb82620001c2565b9050919050565b600073ffffffffffffffffffffffffffffffffffffffff82169050919050565b620001ed81620001ae565b8114620001f957600080fd5b50565b610ef3806200020c6000396000f3fe6080604052600436106100595760003560e01c80630f7ffe9f1461006257806365c4e4aa1461008b57806370a08231146100a7578063715018a6146100e45780638da5cb5b146100fb578063f2fde38b1461012657610060565b3661006057005b005b34801561006e57600080fd5b5061008960048036038101906100849190610a23565b61014f565b005b6100a560048036038101906100a09190610a23565b61045e565b005b3480156100b357600080fd5b506100ce60048036038101906100c99190610a23565b61064d565b6040516100db9190610c78565b60405180910390f35b3480156100f057600080fd5b506100f9610784565b005b34801561010757600080fd5b5061011061080c565b60405161011d9190610b9d565b60405180910390f35b34801561013257600080fd5b5061014d60048036038101906101489190610a23565b610835565b005b3360018060009054906101000a900473ffffffffffffffffffffffffffffffffffffffff1673ffffffffffffffffffffffffffffffffffffffff166370a08231836040518263ffffffff1660e01b81526004016101ac9190610b9d565b60206040518083038186803b1580156101c457600080fd5b505afa1580156101d8573d6000803e3d6000fd5b505050506040513d601f19601f820116820180604052508101906101fc9190610a4c565b1461023c576040517f08c379a000000000000000000000000000000000000000000000000000000000815260040161023390610c38565b60405180910390fd5b6000600260003373ffffffffffffffffffffffffffffffffffffffff1673ffffffffffffffffffffffffffffffffffffffff16815260200190815260200160002054116102be576040517f08c379a00000000000000000000000000000000000000000000000000000000081526004016102b590610bf8565b60405180910390fd5b6000600260003373ffffffffffffffffffffffffffffffffffffffff1673ffffffffffffffffffffffffffffffffffffffff1681526020019081526020016000205490506000600260003373ffffffffffffffffffffffffffffffffffffffff1673ffffffffffffffffffffffffffffffffffffffff1681526020019081526020016000208190555060008373ffffffffffffffffffffffffffffffffffffffff168260405161036d90610b88565b60006040518083038185875af1925050503d80600081146103aa576040519150601f19603f3d011682016040523d82523d6000602084013e6103af565b606091505b50509050806103f3576040517f08c379a00000000000000000000000000000000000000000000000000000000081526004016103ea90610bb8565b60405180910390fd5b8373ffffffffffffffffffffffffffffffffffffffff163373ffffffffffffffffffffffffffffffffffffffff167f9e9d296fc20327f4c51b991917397cd7d530fb5caf24682cf79a615ed245d35b846040516104509190610c78565b60405180910390a350505050565b8060018060009054906101000a900473ffffffffffffffffffffffffffffffffffffffff1673ffffffffffffffffffffffffffffffffffffffff166370a08231836040518263ffffffff1660e01b81526004016104bb9190610b9d565b60206040518083038186803b1580156104d357600080fd5b505afa1580156104e7573d6000803e3d6000fd5b505050506040513d601f19601f8201168201806040525081019061050b9190610a4c565b1461054b576040517f08c379a000000000000000000000000000000000000000000000000000000000815260040161054290610c38565b60405180910390fd5b6000341161058e576040517f08c379a000000000000000000000000000000000000000000000000000000000815260040161058590610c18565b60405180910390fd5b34600260008473ffffffffffffffffffffffffffffffffffffffff1673ffffffffffffffffffffffffffffffffffffffff16815260200190815260200160002060008282546105dd9190610caf565b925050819055508173ffffffffffffffffffffffffffffffffffffffff163373ffffffffffffffffffffffffffffffffffffffff167fa32d9d0d87d6c17bab78e0fe62ab9560e6f09ec4a903287bac5dd223e358c186346040516106419190610c78565b60405180910390a35050565b60008160018060009054906101000a900473ffffffffffffffffffffffffffffffffffffffff1673ffffffffffffffffffffffffffffffffffffffff166370a08231836040518263ffffffff1660e01b81526004016106ac9190610b9d565b60206040518083038186803b1580156106c457600080fd5b505afa1580156106d8573d6000803e3d6000fd5b505050506040513d601f19601f820116820180604052508101906106fc9190610a4c565b1461073c576040517f08c379a000000000000000000000000000000000000000000000000000000000815260040161073390610c38565b60405180910390fd5b600260008473ffffffffffffffffffffffffffffffffffffffff1673ffffffffffffffffffffffffffffffffffffffff16815260200190815260200160002054915050919050565b61078c61092d565b73ffffffffffffffffffffffffffffffffffffffff166107aa61080c565b73ffffffffffffffffffffffffffffffffffffffff1614610800576040517f08c379a00000000000000000000000000000000000000000000000000000000081526004016107f790610c58565b60405180910390fd5b61080a6000610935565b565b60008060009054906101000a900473ffffffffffffffffffffffffffffffffffffffff16905090565b61083d61092d565b73ffffffffffffffffffffffffffffffffffffffff1661085b61080c565b73ffffffffffffffffffffffffffffffffffffffff16146108b1576040517f08c379a00000000000000000000000000000000000000000000000000000000081526004016108a890610c58565b60405180910390fd5b600073ffffffffffffffffffffffffffffffffffffffff168173ffffffffffffffffffffffffffffffffffffffff161415610921576040517f08c379a000000000000000000000000000000000000000000000000000000000815260040161091890610bd8565b60405180910390fd5b61092a81610935565b50565b600033905090565b60008060009054906101000a900473ffffffffffffffffffffffffffffffffffffffff169050816000806101000a81548173ffffffffffffffffffffffffffffffffffffffff021916908373ffffffffffffffffffffffffffffffffffffffff1602179055508173ffffffffffffffffffffffffffffffffffffffff168173ffffffffffffffffffffffffffffffffffffffff167f8be0079c531659141344cd1fd0a4f28419497f9722a3daafe3b4186f6b6457e060405160405180910390a35050565b600081359050610a0881610e8f565b92915050565b600081519050610a1d81610ea6565b92915050565b600060208284031215610a3557600080fd5b6000610a43848285016109f9565b91505092915050565b600060208284031215610a5e57600080fd5b6000610a6c84828501610a0e565b91505092915050565b610a7e81610d05565b82525050565b6000610a91601283610c9e565b9150610a9c82610d70565b602082019050919050565b6000610ab4602683610c9e565b9150610abf82610d99565b604082019050919050565b6000610ad7601c83610c9e565b9150610ae282610de8565b602082019050919050565b6000610afa601d83610c9e565b9150610b0582610e11565b602082019050919050565b6000610b1d601883610c9e565b9150610b2882610e3a565b602082019050919050565b6000610b40602083610c9e565b9150610b4b82610e63565b602082019050919050565b6000610b63600083610c93565b9150610b6e82610e8c565b600082019050919050565b610b8281610d37565b82525050565b6000610b9382610b56565b9150819050919050565b6000602082019050610bb26000830184610a75565b92915050565b60006020820190508181036000830152610bd181610a84565b9050919050565b60006020820190508181036000830152610bf181610aa7565b9050919050565b60006020820190508181036000830152610c1181610aca565b9050919050565b60006020820190508181036000830152610c3181610aed565b9050919050565b60006020820190508181036000830152610c5181610b10565b9050919050565b60006020820190508181036000830152610c7181610b33565b9050919050565b6000602082019050610c8d6000830184610b79565b92915050565b600081905092915050565b600082825260208201905092915050565b6000610cba82610d37565b9150610cc583610d37565b9250827fffffffffffffffffffffffffffffffffffffffffffffffffffffffffffffffff03821115610cfa57610cf9610d41565b5b828201905092915050565b6000610d1082610d17565b9050919050565b600073ffffffffffffffffffffffffffffffffffffffff82169050919050565b6000819050919050565b7f4e487b7100000000000000000000000000000000000000000000000000000000600052601160045260246000fd5b7f4661696c656420746f2077697468647261770000000000000000000000000000600082015250565b7f4f776e61626c653a206e6577206f776e657220697320746865207a65726f206160008201527f6464726573730000000000000000000000000000000000000000000000000000602082015250565b7f596f7520646f6e74206861766520656e6f7567682062616c616e636500000000600082015250565b7f416d6f756e74206d7573742062652067726561746572207468616e2030000000600082015250565b7f41646472657373206973206e6f7420612063726561746f720000000000000000600082015250565b7f4f776e61626c653a2063616c6c6572206973206e6f7420746865206f776e6572600082015250565b50565b610e9881610d05565b8114610ea357600080fd5b50565b610eaf81610d37565b8114610eba57600080fd5b5056fea2646970667358221220fa4251b4720c7eaa239757b785f7172ae795093201691b5246df3097c95287ee64736f6c63430008040033",
  "linkReferences": {},
  "deployedLinkReferences": {}
}