{
  "address": "0x6Fa33f4415f42BE90255FF5Bc4F85e8fad96ddce",
  "_format": "hh-sol-artifact-1",
  "contractName": "CreatorSBT",
  "sourceName": "contracts/CreatorSBT.sol",
  "abi": [
    {
      "inputs": [],
      "stateMutability": "nonpayable",
      "type": "constructor"
    },
    {
      "anonymous": false,
      "inputs": [
        {
          "indexed": true,
          "internalType": "address",
          "name": "owner",
          "type": "address"
        },
        {
          "indexed": true,
          "internalType": "address",
          "name": "approved",
          "type": "address"
        },
        {
          "indexed": true,
          "internalType": "uint256",
          "name": "tokenId",
          "type": "uint256"
        }
      ],
      "name": "Approval",
      "type": "event"
    },
    {
      "anonymous": false,
      "inputs": [
        {
          "indexed": true,
          "internalType": "address",
          "name": "owner",
          "type": "address"
        },
        {
          "indexed": true,
          "internalType": "address",
          "name": "operator",
          "type": "address"
        },
        {
          "indexed": false,
          "internalType": "bool",
          "name": "approved",
          "type": "bool"
        }
      ],
      "name": "ApprovalForAll",
      "type": "event"
    },
    {
      "anonymous": false,
      "inputs": [
        {
          "indexed": true,
          "internalType": "address",
          "name": "previousOwner",
          "type": "address"
        },
        {
          "indexed": true,
          "internalType": "address",
          "name": "newOwner",
          "type": "address"
        }
      ],
      "name": "OwnershipTransferred",
      "type": "event"
    },
    {
      "anonymous": false,
      "inputs": [
        {
          "indexed": true,
          "internalType": "uint256",
          "name": "_tokenId",
          "type": "uint256"
        }
      ],
      "name": "ProfileBurnt",
      "type": "event"
    },
    {
      "anonymous": false,
      "inputs": [
        {
          "indexed": true,
          "internalType": "uint256",
          "name": "_tokenId",
          "type": "uint256"
        },
        {
          "indexed": true,
          "internalType": "address",
          "name": "_owner",
          "type": "address"
        },
        {
          "indexed": false,
          "internalType": "string",
          "name": "artist",
          "type": "string"
        },
        {
          "indexed": false,
          "internalType": "string",
          "name": "uri",
          "type": "string"
        }
      ],
      "name": "ProfileMinted",
      "type": "event"
    },
    {
      "anonymous": false,
      "inputs": [
        {
          "indexed": true,
          "internalType": "uint256",
          "name": "_tokenId",
          "type": "uint256"
        },
        {
          "indexed": false,
          "internalType": "string",
          "name": "uri",
          "type": "string"
        },
        {
          "indexed": false,
          "internalType": "string",
          "name": "artist",
          "type": "string"
        }
      ],
      "name": "ProfileUpdated",
      "type": "event"
    },
    {
      "anonymous": false,
      "inputs": [
        {
          "indexed": true,
          "internalType": "address",
          "name": "from",
          "type": "address"
        },
        {
          "indexed": true,
          "internalType": "address",
          "name": "to",
          "type": "address"
        },
        {
          "indexed": true,
          "internalType": "uint256",
          "name": "tokenId",
          "type": "uint256"
        }
      ],
      "name": "Transfer",
      "type": "event"
    },
    {
      "inputs": [
        {
          "internalType": "address",
          "name": "to",
          "type": "address"
        },
        {
          "internalType": "uint256",
          "name": "tokenId",
          "type": "uint256"
        }
      ],
      "name": "approve",
      "outputs": [],
      "stateMutability": "nonpayable",
      "type": "function"
    },
    {
      "inputs": [
        {
          "internalType": "address",
          "name": "owner",
          "type": "address"
        }
      ],
      "name": "balanceOf",
      "outputs": [
        {
          "internalType": "uint256",
          "name": "",
          "type": "uint256"
        }
      ],
      "stateMutability": "view",
      "type": "function"
    },
    {
      "inputs": [
        {
          "internalType": "uint256",
          "name": "tokenId",
          "type": "uint256"
        }
      ],
      "name": "burn",
      "outputs": [],
      "stateMutability": "nonpayable",
      "type": "function"
    },
    {
      "inputs": [],
      "name": "burnProfile",
      "outputs": [],
      "stateMutability": "nonpayable",
      "type": "function"
    },
    {
      "inputs": [
        {
          "internalType": "uint256",
          "name": "tokenId",
          "type": "uint256"
        }
      ],
      "name": "getApproved",
      "outputs": [
        {
          "internalType": "address",
          "name": "",
          "type": "address"
        }
      ],
      "stateMutability": "view",
      "type": "function"
    },
    {
      "inputs": [
        {
          "internalType": "address",
          "name": "owner",
          "type": "address"
        },
        {
          "internalType": "address",
          "name": "operator",
          "type": "address"
        }
      ],
      "name": "isApprovedForAll",
      "outputs": [
        {
          "internalType": "bool",
          "name": "",
          "type": "bool"
        }
      ],
      "stateMutability": "view",
      "type": "function"
    },
    {
      "inputs": [
        {
          "internalType": "string",
          "name": "_uri",
          "type": "string"
        },
        {
          "internalType": "string",
          "name": "_artist",
          "type": "string"
        }
      ],
      "name": "mintProfile",
      "outputs": [],
      "stateMutability": "nonpayable",
      "type": "function"
    },
    {
      "inputs": [],
      "name": "name",
      "outputs": [
        {
          "internalType": "string",
          "name": "",
          "type": "string"
        }
      ],
      "stateMutability": "view",
      "type": "function"
    },
    {
      "inputs": [],
      "name": "owner",
      "outputs": [
        {
          "internalType": "address",
          "name": "",
          "type": "address"
        }
      ],
      "stateMutability": "view",
      "type": "function"
    },
    {
      "inputs": [
        {
          "internalType": "uint256",
          "name": "tokenId",
          "type": "uint256"
        }
      ],
      "name": "ownerOf",
      "outputs": [
        {
          "internalType": "address",
          "name": "",
          "type": "address"
        }
      ],
      "stateMutability": "view",
      "type": "function"
    },
    {
      "inputs": [
        {
          "internalType": "address",
          "name": "_owner",
          "type": "address"
        }
      ],
      "name": "profileURI",
      "outputs": [
        {
          "internalType": "string",
          "name": "",
          "type": "string"
        }
      ],
      "stateMutability": "view",
      "type": "function"
    },
    {
      "inputs": [],
      "name": "renounceOwnership",
      "outputs": [],
      "stateMutability": "nonpayable",
      "type": "function"
    },
    {
      "inputs": [
        {
          "internalType": "address",
          "name": "from",
          "type": "address"
        },
        {
          "internalType": "address",
          "name": "to",
          "type": "address"
        },
        {
          "internalType": "uint256",
          "name": "tokenId",
          "type": "uint256"
        }
      ],
      "name": "safeTransferFrom",
      "outputs": [],
      "stateMutability": "nonpayable",
      "type": "function"
    },
    {
      "inputs": [
        {
          "internalType": "address",
          "name": "from",
          "type": "address"
        },
        {
          "internalType": "address",
          "name": "to",
          "type": "address"
        },
        {
          "internalType": "uint256",
          "name": "tokenId",
          "type": "uint256"
        },
        {
          "internalType": "bytes",
          "name": "_data",
          "type": "bytes"
        }
      ],
      "name": "safeTransferFrom",
      "outputs": [],
      "stateMutability": "nonpayable",
      "type": "function"
    },
    {
      "inputs": [
        {
          "internalType": "address",
          "name": "operator",
          "type": "address"
        },
        {
          "internalType": "bool",
          "name": "approved",
          "type": "bool"
        }
      ],
      "name": "setApprovalForAll",
      "outputs": [],
      "stateMutability": "nonpayable",
      "type": "function"
    },
    {
      "inputs": [
        {
          "internalType": "bytes4",
          "name": "interfaceId",
          "type": "bytes4"
        }
      ],
      "name": "supportsInterface",
      "outputs": [
        {
          "internalType": "bool",
          "name": "",
          "type": "bool"
        }
      ],
      "stateMutability": "view",
      "type": "function"
    },
    {
      "inputs": [],
      "name": "symbol",
      "outputs": [
        {
          "internalType": "string",
          "name": "",
          "type": "string"
        }
      ],
      "stateMutability": "view",
      "type": "function"
    },
    {
      "inputs": [
        {
          "internalType": "uint256",
          "name": "tokenId",
          "type": "uint256"
        }
      ],
      "name": "tokenURI",
      "outputs": [
        {
          "internalType": "string",
          "name": "",
          "type": "string"
        }
      ],
      "stateMutability": "view",
      "type": "function"
    },
    {
      "inputs": [],
      "name": "totalSupply",
      "outputs": [
        {
          "internalType": "uint256",
          "name": "",
          "type": "uint256"
        }
      ],
      "stateMutability": "view",
      "type": "function"
    },
    {
      "inputs": [
        {
          "internalType": "address",
          "name": "from",
          "type": "address"
        },
        {
          "internalType": "address",
          "name": "to",
          "type": "address"
        },
        {
          "internalType": "uint256",
          "name": "tokenId",
          "type": "uint256"
        }
      ],
      "name": "transferFrom",
      "outputs": [],
      "stateMutability": "nonpayable",
      "type": "function"
    },
    {
      "inputs": [
        {
          "internalType": "address",
          "name": "newOwner",
          "type": "address"
        }
      ],
      "name": "transferOwnership",
      "outputs": [],
      "stateMutability": "nonpayable",
      "type": "function"
    },
    {
      "inputs": [
        {
          "internalType": "string",
          "name": "_uri",
          "type": "string"
        },
        {
          "internalType": "string",
          "name": "_artist",
          "type": "string"
        }
      ],
      "name": "updateProfile",
      "outputs": [],
      "stateMutability": "nonpayable",
      "type": "function"
    }
  ],
  "bytecode": "0x60806040523480156200001157600080fd5b506040518060400160405280601e81526020017f47656e72657a2043726561746f7220536f756c626f756e6420546f6b656e00008152506040518060400160405280600481526020017f7a53425400000000000000000000000000000000000000000000000000000000815250816000908051906020019062000096929190620001a6565b508060019080519060200190620000af929190620001a6565b505050620000d2620000c6620000d860201b60201c565b620000e060201b60201c565b620002bb565b600033905090565b6000600760009054906101000a900473ffffffffffffffffffffffffffffffffffffffff16905081600760006101000a81548173ffffffffffffffffffffffffffffffffffffffff021916908373ffffffffffffffffffffffffffffffffffffffff1602179055508173ffffffffffffffffffffffffffffffffffffffff168173ffffffffffffffffffffffffffffffffffffffff167f8be0079c531659141344cd1fd0a4f28419497f9722a3daafe3b4186f6b6457e060405160405180910390a35050565b828054620001b49062000256565b90600052602060002090601f016020900481019282620001d8576000855562000224565b82601f10620001f357805160ff191683800117855562000224565b8280016001018555821562000224579182015b828111156200022357825182559160200191906001019062000206565b5b50905062000233919062000237565b5090565b5b808211156200025257600081600090555060010162000238565b5090565b600060028204905060018216806200026f57607f821691505b602082108114156200028657620002856200028c565b5b50919050565b7f4e487b7100000000000000000000000000000000000000000000000000000000600052602260045260246000fd5b6138d080620002cb6000396000f3fe608060405234801561001057600080fd5b50600436106101425760003560e01c80638da5cb5b116100b8578063c87b56dd1161007c578063c87b56dd1461034d578063c9d3cc6a1461037d578063e985e9c514610399578063f294e249146103c9578063f2fde38b146103f9578063fc93d0231461041557610142565b80638da5cb5b146102bd57806395d89b41146102db578063a22cb465146102f9578063b589a3dc14610315578063b88d4fde1461033157610142565b806323b872dd1161010a57806323b872dd146101ff57806342842e0e1461021b57806342966c68146102375780636352211e1461025357806370a0823114610283578063715018a6146102b357610142565b806301ffc9a71461014757806306fdde0314610177578063081812fc14610195578063095ea7b3146101c557806318160ddd146101e1575b600080fd5b610161600480360381019061015c91906125e0565b61041f565b60405161016e9190612b24565b60405180910390f35b61017f610501565b60405161018c9190612b3f565b60405180910390f35b6101af60048036038101906101aa919061269e565b610593565b6040516101bc9190612abd565b60405180910390f35b6101df60048036038101906101da91906125a4565b610618565b005b6101e9610730565b6040516101f69190612e58565b60405180910390f35b6102196004803603810190610214919061249e565b610741565b005b6102356004803603810190610230919061249e565b6107a1565b005b610251600480360381019061024c919061269e565b6107c1565b005b61026d6004803603810190610268919061269e565b61081d565b60405161027a9190612abd565b60405180910390f35b61029d60048036038101906102989190612439565b6108cf565b6040516102aa9190612e58565b60405180910390f35b6102bb610987565b005b6102c5610a0f565b6040516102d29190612abd565b60405180910390f35b6102e3610a39565b6040516102f09190612b3f565b60405180910390f35b610313600480360381019061030e9190612568565b610acb565b005b61032f600480360381019061032a9190612632565b610ae1565b005b61034b600480360381019061034691906124ed565b610c1e565b005b6103676004803603810190610362919061269e565b610c80565b6040516103749190612b3f565b60405180910390f35b61039760048036038101906103929190612632565b610c92565b005b6103b360048036038101906103ae9190612462565b610d67565b6040516103c09190612b24565b60405180910390f35b6103e360048036038101906103de9190612439565b610dfb565b6040516103f09190612b3f565b60405180910390f35b610413600480360381019061040e9190612439565b610e52565b005b61041d610f4a565b005b60007f80ac58cd000000000000000000000000000000000000000000000000000000007bffffffffffffffffffffffffffffffffffffffffffffffffffffffff1916827bffffffffffffffffffffffffffffffffffffffffffffffffffffffff191614806104ea57507f5b5e139f000000000000000000000000000000000000000000000000000000007bffffffffffffffffffffffffffffffffffffffffffffffffffffffff1916827bffffffffffffffffffffffffffffffffffffffffffffffffffffffff1916145b806104fa57506104f982610fc7565b5b9050919050565b606060008054610510906130ae565b80601f016020809104026020016040519081016040528092919081815260200182805461053c906130ae565b80156105895780601f1061055e57610100808354040283529160200191610589565b820191906000526020600020905b81548152906001019060200180831161056c57829003601f168201915b5050505050905090565b600061059e82611031565b6105dd576040517f08c379a00000000000000000000000000000000000000000000000000000000081526004016105d490612d58565b60405180910390fd5b6004600083815260200190815260200160002060009054906101000a900473ffffffffffffffffffffffffffffffffffffffff169050919050565b60006106238261081d565b90508073ffffffffffffffffffffffffffffffffffffffff168373ffffffffffffffffffffffffffffffffffffffff161415610694576040517f08c379a000000000000000000000000000000000000000000000000000000000815260040161068b90612dd8565b60405180910390fd5b8073ffffffffffffffffffffffffffffffffffffffff166106b361109d565b73ffffffffffffffffffffffffffffffffffffffff1614806106e257506106e1816106dc61109d565b610d67565b5b610721576040517f08c379a000000000000000000000000000000000000000000000000000000000815260040161071890612c98565b60405180910390fd5b61072b83836110a5565b505050565b600061073c600861115e565b905090565b61075261074c61109d565b8261116c565b610791576040517f08c379a000000000000000000000000000000000000000000000000000000000815260040161078890612df8565b60405180910390fd5b61079c83838361124a565b505050565b6107bc83838360405180602001604052806000815250610c1e565b505050565b6107d26107cc61109d565b8261116c565b610811576040517f08c379a000000000000000000000000000000000000000000000000000000000815260040161080890612e18565b60405180910390fd5b61081a816114b1565b50565b6000806002600084815260200190815260200160002060009054906101000a900473ffffffffffffffffffffffffffffffffffffffff169050600073ffffffffffffffffffffffffffffffffffffffff168173ffffffffffffffffffffffffffffffffffffffff1614156108c6576040517f08c379a00000000000000000000000000000000000000000000000000000000081526004016108bd90612cd8565b60405180910390fd5b80915050919050565b60008073ffffffffffffffffffffffffffffffffffffffff168273ffffffffffffffffffffffffffffffffffffffff161415610940576040517f08c379a000000000000000000000000000000000000000000000000000000000815260040161093790612cb8565b60405180910390fd5b600360008373ffffffffffffffffffffffffffffffffffffffff1673ffffffffffffffffffffffffffffffffffffffff168152602001908152602001600020549050919050565b61098f61109d565b73ffffffffffffffffffffffffffffffffffffffff166109ad610a0f565b73ffffffffffffffffffffffffffffffffffffffff1614610a03576040517f08c379a00000000000000000000000000000000000000000000000000000000081526004016109fa90612d98565b60405180910390fd5b610a0d60006114bd565b565b6000600760009054906101000a900473ffffffffffffffffffffffffffffffffffffffff16905090565b606060018054610a48906130ae565b80601f0160208091040260200160405190810160405280929190818152602001828054610a74906130ae565b8015610ac15780601f10610a9657610100808354040283529160200191610ac1565b820191906000526020600020905b815481529060010190602001808311610aa457829003601f168201915b5050505050905090565b610add610ad661109d565b8383611583565b5050565b600073ffffffffffffffffffffffffffffffffffffffff163373ffffffffffffffffffffffffffffffffffffffff161415610b51576040517f08c379a0000000000000000000000000000000000000000000000000000000008152600401610b4890612b98565b60405180910390fd5b6000610b5c336108cf565b14610b9c576040517f08c379a0000000000000000000000000000000000000000000000000000000008152600401610b9390612e38565b60405180910390fd5b610ba660086116f0565b6000610bb2600861115e565b9050610bbe3382611706565b610bc88184611724565b3373ffffffffffffffffffffffffffffffffffffffff16817f2d0acbd13f56138c25378d301c5f296db699d85eafd67baab1bb6bceb40f962c8486604051610c11929190612b61565b60405180910390a3505050565b610c2f610c2961109d565b8361116c565b610c6e576040517f08c379a0000000000000000000000000000000000000000000000000000000008152600401610c6590612df8565b60405180910390fd5b610c7a84848484611798565b50505050565b6060610c8b826117f4565b9050919050565b6000600960003373ffffffffffffffffffffffffffffffffffffffff1673ffffffffffffffffffffffffffffffffffffffff168152602001908152602001600020549050610cdf81611031565b610d1e576040517f08c379a0000000000000000000000000000000000000000000000000000000008152600401610d1590612d78565b60405180910390fd5b610d288184611724565b807fa1a4f6f1cbe12335c62a3b30dc6aa84aa9e5a439b619201d70214c119bd9d09b8484604051610d5a929190612b61565b60405180910390a2505050565b6000600560008473ffffffffffffffffffffffffffffffffffffffff1673ffffffffffffffffffffffffffffffffffffffff16815260200190815260200160002060008373ffffffffffffffffffffffffffffffffffffffff1673ffffffffffffffffffffffffffffffffffffffff16815260200190815260200160002060009054906101000a900460ff16905092915050565b60606000600960008473ffffffffffffffffffffffffffffffffffffffff1673ffffffffffffffffffffffffffffffffffffffff168152602001908152602001600020549050610e4a81610c80565b915050919050565b610e5a61109d565b73ffffffffffffffffffffffffffffffffffffffff16610e78610a0f565b73ffffffffffffffffffffffffffffffffffffffff1614610ece576040517f08c379a0000000000000000000000000000000000000000000000000000000008152600401610ec590612d98565b60405180910390fd5b600073ffffffffffffffffffffffffffffffffffffffff168173ffffffffffffffffffffffffffffffffffffffff161415610f3e576040517f08c379a0000000000000000000000000000000000000000000000000000000008152600401610f3590612bd8565b60405180910390fd5b610f47816114bd565b50565b6000600960003373ffffffffffffffffffffffffffffffffffffffff1673ffffffffffffffffffffffffffffffffffffffff168152602001908152602001600020549050610f97816107c1565b807f4eada9a1d688533f5e4bed71294c1ab1ce5109a2df720242eec50366f0eaede960405160405180910390a250565b60007f01ffc9a7000000000000000000000000000000000000000000000000000000007bffffffffffffffffffffffffffffffffffffffffffffffffffffffff1916827bffffffffffffffffffffffffffffffffffffffffffffffffffffffff1916149050919050565b60008073ffffffffffffffffffffffffffffffffffffffff166002600084815260200190815260200160002060009054906101000a900473ffffffffffffffffffffffffffffffffffffffff1673ffffffffffffffffffffffffffffffffffffffff1614159050919050565b600033905090565b816004600083815260200190815260200160002060006101000a81548173ffffffffffffffffffffffffffffffffffffffff021916908373ffffffffffffffffffffffffffffffffffffffff160217905550808273ffffffffffffffffffffffffffffffffffffffff166111188361081d565b73ffffffffffffffffffffffffffffffffffffffff167f8c5be1e5ebec7d5bd14f71427d1e84f3dd0314c0f7b2291e5b200ac8c7c3b92560405160405180910390a45050565b600081600001549050919050565b600061117782611031565b6111b6576040517f08c379a00000000000000000000000000000000000000000000000000000000081526004016111ad90612c78565b60405180910390fd5b60006111c18361081d565b90508073ffffffffffffffffffffffffffffffffffffffff168473ffffffffffffffffffffffffffffffffffffffff16148061120357506112028185610d67565b5b8061124157508373ffffffffffffffffffffffffffffffffffffffff1661122984610593565b73ffffffffffffffffffffffffffffffffffffffff16145b91505092915050565b8273ffffffffffffffffffffffffffffffffffffffff1661126a8261081d565b73ffffffffffffffffffffffffffffffffffffffff16146112c0576040517f08c379a00000000000000000000000000000000000000000000000000000000081526004016112b790612bf8565b60405180910390fd5b600073ffffffffffffffffffffffffffffffffffffffff168273ffffffffffffffffffffffffffffffffffffffff161415611330576040517f08c379a000000000000000000000000000000000000000000000000000000000815260040161132790612c38565b60405180910390fd5b61133b838383611946565b6113466000826110a5565b6001600360008573ffffffffffffffffffffffffffffffffffffffff1673ffffffffffffffffffffffffffffffffffffffff16815260200190815260200160002060008282546113969190612fc4565b925050819055506001600360008473ffffffffffffffffffffffffffffffffffffffff1673ffffffffffffffffffffffffffffffffffffffff16815260200190815260200160002060008282546113ed9190612f3d565b92505081905550816002600083815260200190815260200160002060006101000a81548173ffffffffffffffffffffffffffffffffffffffff021916908373ffffffffffffffffffffffffffffffffffffffff160217905550808273ffffffffffffffffffffffffffffffffffffffff168473ffffffffffffffffffffffffffffffffffffffff167fddf252ad1be2c89b69c2b068fc378daa952ba7f163c4a11628f55a4df523b3ef60405160405180910390a46114ac838383611a49565b505050565b6114ba81611a4e565b50565b6000600760009054906101000a900473ffffffffffffffffffffffffffffffffffffffff16905081600760006101000a81548173ffffffffffffffffffffffffffffffffffffffff021916908373ffffffffffffffffffffffffffffffffffffffff1602179055508173ffffffffffffffffffffffffffffffffffffffff168173ffffffffffffffffffffffffffffffffffffffff167f8be0079c531659141344cd1fd0a4f28419497f9722a3daafe3b4186f6b6457e060405160405180910390a35050565b8173ffffffffffffffffffffffffffffffffffffffff168373ffffffffffffffffffffffffffffffffffffffff1614156115f2576040517f08c379a00000000000000000000000000000000000000000000000000000000081526004016115e990612c58565b60405180910390fd5b80600560008573ffffffffffffffffffffffffffffffffffffffff1673ffffffffffffffffffffffffffffffffffffffff16815260200190815260200160002060008473ffffffffffffffffffffffffffffffffffffffff1673ffffffffffffffffffffffffffffffffffffffff16815260200190815260200160002060006101000a81548160ff0219169083151502179055508173ffffffffffffffffffffffffffffffffffffffff168373ffffffffffffffffffffffffffffffffffffffff167f17307eab39ab6107e8899845ad3d59bd9653f200f220920489ca2b5937696c31836040516116e39190612b24565b60405180910390a3505050565b6001816000016000828254019250508190555050565b611720828260405180602001604052806000815250611aa1565b5050565b61172d82611031565b61176c576040517f08c379a000000000000000000000000000000000000000000000000000000000815260040161176390612cf8565b60405180910390fd5b8060066000848152602001908152602001600020908051906020019061179392919061221d565b505050565b6117a384848461124a565b6117af84848484611afc565b6117ee576040517f08c379a00000000000000000000000000000000000000000000000000000000081526004016117e590612bb8565b60405180910390fd5b50505050565b60606117ff82611031565b61183e576040517f08c379a000000000000000000000000000000000000000000000000000000000815260040161183590612d38565b60405180910390fd5b600060066000848152602001908152602001600020805461185e906130ae565b80601f016020809104026020016040519081016040528092919081815260200182805461188a906130ae565b80156118d75780601f106118ac576101008083540402835291602001916118d7565b820191906000526020600020905b8154815290600101906020018083116118ba57829003601f168201915b5050505050905060006118e8611c93565b90506000815114156118fe578192505050611941565b60008251111561193357808260405160200161191b929190612a99565b60405160208183030381529060405292505050611941565b61193c84611caa565b925050505b919050565b611951838383611d51565b600073ffffffffffffffffffffffffffffffffffffffff168373ffffffffffffffffffffffffffffffffffffffff1614156119cb5780600960008473ffffffffffffffffffffffffffffffffffffffff1673ffffffffffffffffffffffffffffffffffffffff168152602001908152602001600020819055505b600073ffffffffffffffffffffffffffffffffffffffff168273ffffffffffffffffffffffffffffffffffffffff161415611a4457600960008473ffffffffffffffffffffffffffffffffffffffff1673ffffffffffffffffffffffffffffffffffffffff168152602001908152602001600020600090555b505050565b505050565b611a5781611d56565b6000600660008381526020019081526020016000208054611a77906130ae565b905014611a9e57600660008281526020019081526020016000206000611a9d91906122a3565b5b50565b611aab8383611e73565b611ab86000848484611afc565b611af7576040517f08c379a0000000000000000000000000000000000000000000000000000000008152600401611aee90612bb8565b60405180910390fd5b505050565b6000611b1d8473ffffffffffffffffffffffffffffffffffffffff1661204d565b15611c86578373ffffffffffffffffffffffffffffffffffffffff1663150b7a02611b4661109d565b8786866040518563ffffffff1660e01b8152600401611b689493929190612ad8565b602060405180830381600087803b158015611b8257600080fd5b505af1925050508015611bb357506040513d601f19601f82011682018060405250810190611bb09190612609565b60015b611c36573d8060008114611be3576040519150601f19603f3d011682016040523d82523d6000602084013e611be8565b606091505b50600081511415611c2e576040517f08c379a0000000000000000000000000000000000000000000000000000000008152600401611c2590612bb8565b60405180910390fd5b805181602001fd5b63150b7a0260e01b7bffffffffffffffffffffffffffffffffffffffffffffffffffffffff1916817bffffffffffffffffffffffffffffffffffffffffffffffffffffffff191614915050611c8b565b600190505b949350505050565b606060405180602001604052806000815250905090565b6060611cb582611031565b611cf4576040517f08c379a0000000000000000000000000000000000000000000000000000000008152600401611ceb90612db8565b60405180910390fd5b6000611cfe611c93565b90506000815111611d1e5760405180602001604052806000815250611d49565b80611d2884612070565b604051602001611d39929190612a99565b6040516020818303038152906040525b915050919050565b505050565b6000611d618261081d565b9050611d6f81600084611946565b611d7a6000836110a5565b6001600360008373ffffffffffffffffffffffffffffffffffffffff1673ffffffffffffffffffffffffffffffffffffffff1681526020019081526020016000206000828254611dca9190612fc4565b925050819055506002600083815260200190815260200160002060006101000a81549073ffffffffffffffffffffffffffffffffffffffff021916905581600073ffffffffffffffffffffffffffffffffffffffff168273ffffffffffffffffffffffffffffffffffffffff167fddf252ad1be2c89b69c2b068fc378daa952ba7f163c4a11628f55a4df523b3ef60405160405180910390a4611e6f81600084611a49565b5050565b600073ffffffffffffffffffffffffffffffffffffffff168273ffffffffffffffffffffffffffffffffffffffff161415611ee3576040517f08c379a0000000000000000000000000000000000000000000000000000000008152600401611eda90612d18565b60405180910390fd5b611eec81611031565b15611f2c576040517f08c379a0000000000000000000000000000000000000000000000000000000008152600401611f2390612c18565b60405180910390fd5b611f3860008383611946565b6001600360008473ffffffffffffffffffffffffffffffffffffffff1673ffffffffffffffffffffffffffffffffffffffff1681526020019081526020016000206000828254611f889190612f3d565b92505081905550816002600083815260200190815260200160002060006101000a81548173ffffffffffffffffffffffffffffffffffffffff021916908373ffffffffffffffffffffffffffffffffffffffff160217905550808273ffffffffffffffffffffffffffffffffffffffff16600073ffffffffffffffffffffffffffffffffffffffff167fddf252ad1be2c89b69c2b068fc378daa952ba7f163c4a11628f55a4df523b3ef60405160405180910390a461204960008383611a49565b5050565b6000808273ffffffffffffffffffffffffffffffffffffffff163b119050919050565b606060008214156120b8576040518060400160405280600181526020017f30000000000000000000000000000000000000000000000000000000000000008152509050612218565b600082905060005b600082146120ea5780806120d390613111565b915050600a826120e39190612f93565b91506120c0565b60008167ffffffffffffffff81111561212c577f4e487b7100000000000000000000000000000000000000000000000000000000600052604160045260246000fd5b6040519080825280601f01601f19166020018201604052801561215e5781602001600182028036833780820191505090505b5090505b60008514612211576001826121779190612fc4565b9150600a85612186919061315a565b60306121929190612f3d565b60f81b8183815181106121ce577f4e487b7100000000000000000000000000000000000000000000000000000000600052603260045260246000fd5b60200101907effffffffffffffffffffffffffffffffffffffffffffffffffffffffffffff1916908160001a905350600a8561220a9190612f93565b9450612162565b8093505050505b919050565b828054612229906130ae565b90600052602060002090601f01602090048101928261224b5760008555612292565b82601f1061226457805160ff1916838001178555612292565b82800160010185558215612292579182015b82811115612291578251825591602001919060010190612276565b5b50905061229f91906122e3565b5090565b5080546122af906130ae565b6000825580601f106122c157506122e0565b601f0160209004906000526020600020908101906122df91906122e3565b5b50565b5b808211156122fc5760008160009055506001016122e4565b5090565b600061231361230e84612e98565b612e73565b90508281526020810184848401111561232b57600080fd5b61233684828561306c565b509392505050565b600061235161234c84612ec9565b612e73565b90508281526020810184848401111561236957600080fd5b61237484828561306c565b509392505050565b60008135905061238b8161383e565b92915050565b6000813590506123a081613855565b92915050565b6000813590506123b58161386c565b92915050565b6000815190506123ca8161386c565b92915050565b600082601f8301126123e157600080fd5b81356123f1848260208601612300565b91505092915050565b600082601f83011261240b57600080fd5b813561241b84826020860161233e565b91505092915050565b60008135905061243381613883565b92915050565b60006020828403121561244b57600080fd5b60006124598482850161237c565b91505092915050565b6000806040838503121561247557600080fd5b60006124838582860161237c565b92505060206124948582860161237c565b9150509250929050565b6000806000606084860312156124b357600080fd5b60006124c18682870161237c565b93505060206124d28682870161237c565b92505060406124e386828701612424565b9150509250925092565b6000806000806080858703121561250357600080fd5b60006125118782880161237c565b94505060206125228782880161237c565b935050604061253387828801612424565b925050606085013567ffffffffffffffff81111561255057600080fd5b61255c878288016123d0565b91505092959194509250565b6000806040838503121561257b57600080fd5b60006125898582860161237c565b925050602061259a85828601612391565b9150509250929050565b600080604083850312156125b757600080fd5b60006125c58582860161237c565b92505060206125d685828601612424565b9150509250929050565b6000602082840312156125f257600080fd5b6000612600848285016123a6565b91505092915050565b60006020828403121561261b57600080fd5b6000612629848285016123bb565b91505092915050565b6000806040838503121561264557600080fd5b600083013567ffffffffffffffff81111561265f57600080fd5b61266b858286016123fa565b925050602083013567ffffffffffffffff81111561268857600080fd5b612694858286016123fa565b9150509250929050565b6000602082840312156126b057600080fd5b60006126be84828501612424565b91505092915050565b6126d081612ff8565b82525050565b6126df8161300a565b82525050565b60006126f082612efa565b6126fa8185612f10565b935061270a81856020860161307b565b61271381613247565b840191505092915050565b600061272982612f05565b6127338185612f21565b935061274381856020860161307b565b61274c81613247565b840191505092915050565b600061276282612f05565b61276c8185612f32565b935061277c81856020860161307b565b80840191505092915050565b6000612795600f83612f21565b91506127a082613258565b602082019050919050565b60006127b8603283612f21565b91506127c382613281565b604082019050919050565b60006127db602683612f21565b91506127e6826132d0565b604082019050919050565b60006127fe602583612f21565b91506128098261331f565b604082019050919050565b6000612821601c83612f21565b915061282c8261336e565b602082019050919050565b6000612844602483612f21565b915061284f82613397565b604082019050919050565b6000612867601983612f21565b9150612872826133e6565b602082019050919050565b600061288a602c83612f21565b91506128958261340f565b604082019050919050565b60006128ad603883612f21565b91506128b88261345e565b604082019050919050565b60006128d0602a83612f21565b91506128db826134ad565b604082019050919050565b60006128f3602983612f21565b91506128fe826134fc565b604082019050919050565b6000612916602e83612f21565b91506129218261354b565b604082019050919050565b6000612939602083612f21565b91506129448261359a565b602082019050919050565b600061295c603183612f21565b9150612967826135c3565b604082019050919050565b600061297f602c83612f21565b915061298a82613612565b604082019050919050565b60006129a2601683612f21565b91506129ad82613661565b602082019050919050565b60006129c5602083612f21565b91506129d08261368a565b602082019050919050565b60006129e8602f83612f21565b91506129f3826136b3565b604082019050919050565b6000612a0b602183612f21565b9150612a1682613702565b604082019050919050565b6000612a2e603183612f21565b9150612a3982613751565b604082019050919050565b6000612a51603083612f21565b9150612a5c826137a0565b604082019050919050565b6000612a74602483612f21565b9150612a7f826137ef565b604082019050919050565b612a9381613062565b82525050565b6000612aa58285612757565b9150612ab18284612757565b91508190509392505050565b6000602082019050612ad260008301846126c7565b92915050565b6000608082019050612aed60008301876126c7565b612afa60208301866126c7565b612b076040830185612a8a565b8181036060830152612b1981846126e5565b905095945050505050565b6000602082019050612b3960008301846126d6565b92915050565b60006020820190508181036000830152612b59818461271e565b905092915050565b60006040820190508181036000830152612b7b818561271e565b90508181036020830152612b8f818461271e565b90509392505050565b60006020820190508181036000830152612bb181612788565b9050919050565b60006020820190508181036000830152612bd1816127ab565b9050919050565b60006020820190508181036000830152612bf1816127ce565b9050919050565b60006020820190508181036000830152612c11816127f1565b9050919050565b60006020820190508181036000830152612c3181612814565b9050919050565b60006020820190508181036000830152612c5181612837565b9050919050565b60006020820190508181036000830152612c718161285a565b9050919050565b60006020820190508181036000830152612c918161287d565b9050919050565b60006020820190508181036000830152612cb1816128a0565b9050919050565b60006020820190508181036000830152612cd1816128c3565b9050919050565b60006020820190508181036000830152612cf1816128e6565b9050919050565b60006020820190508181036000830152612d1181612909565b9050919050565b60006020820190508181036000830152612d318161292c565b9050919050565b60006020820190508181036000830152612d518161294f565b9050919050565b60006020820190508181036000830152612d7181612972565b9050919050565b60006020820190508181036000830152612d9181612995565b9050919050565b60006020820190508181036000830152612db1816129b8565b9050919050565b60006020820190508181036000830152612dd1816129db565b9050919050565b60006020820190508181036000830152612df1816129fe565b9050919050565b60006020820190508181036000830152612e1181612a21565b9050919050565b60006020820190508181036000830152612e3181612a44565b9050919050565b60006020820190508181036000830152612e5181612a67565b9050919050565b6000602082019050612e6d6000830184612a8a565b92915050565b6000612e7d612e8e565b9050612e8982826130e0565b919050565b6000604051905090565b600067ffffffffffffffff821115612eb357612eb2613218565b5b612ebc82613247565b9050602081019050919050565b600067ffffffffffffffff821115612ee457612ee3613218565b5b612eed82613247565b9050602081019050919050565b600081519050919050565b600081519050919050565b600082825260208201905092915050565b600082825260208201905092915050565b600081905092915050565b6000612f4882613062565b9150612f5383613062565b9250827fffffffffffffffffffffffffffffffffffffffffffffffffffffffffffffffff03821115612f8857612f8761318b565b5b828201905092915050565b6000612f9e82613062565b9150612fa983613062565b925082612fb957612fb86131ba565b5b828204905092915050565b6000612fcf82613062565b9150612fda83613062565b925082821015612fed57612fec61318b565b5b828203905092915050565b600061300382613042565b9050919050565b60008115159050919050565b60007fffffffff0000000000000000000000000000000000000000000000000000000082169050919050565b600073ffffffffffffffffffffffffffffffffffffffff82169050919050565b6000819050919050565b82818337600083830152505050565b60005b8381101561309957808201518184015260208101905061307e565b838111156130a8576000848401525b50505050565b600060028204905060018216806130c657607f821691505b602082108114156130da576130d96131e9565b5b50919050565b6130e982613247565b810181811067ffffffffffffffff8211171561310857613107613218565b5b80604052505050565b600061311c82613062565b91507fffffffffffffffffffffffffffffffffffffffffffffffffffffffffffffffff82141561314f5761314e61318b565b5b600182019050919050565b600061316582613062565b915061317083613062565b9250826131805761317f6131ba565b5b828206905092915050565b7f4e487b7100000000000000000000000000000000000000000000000000000000600052601160045260246000fd5b7f4e487b7100000000000000000000000000000000000000000000000000000000600052601260045260246000fd5b7f4e487b7100000000000000000000000000000000000000000000000000000000600052602260045260246000fd5b7f4e487b7100000000000000000000000000000000000000000000000000000000600052604160045260246000fd5b6000601f19601f8301169050919050565b7f496e76616c696420616464726573730000000000000000000000000000000000600082015250565b7f4552433732313a207472616e7366657220746f206e6f6e20455243373231526560008201527f63656976657220696d706c656d656e7465720000000000000000000000000000602082015250565b7f4f776e61626c653a206e6577206f776e657220697320746865207a65726f206160008201527f6464726573730000000000000000000000000000000000000000000000000000602082015250565b7f4552433732313a207472616e736665722066726f6d20696e636f72726563742060008201527f6f776e6572000000000000000000000000000000000000000000000000000000602082015250565b7f4552433732313a20746f6b656e20616c7265616479206d696e74656400000000600082015250565b7f4552433732313a207472616e7366657220746f20746865207a65726f2061646460008201527f7265737300000000000000000000000000000000000000000000000000000000602082015250565b7f4552433732313a20617070726f766520746f2063616c6c657200000000000000600082015250565b7f4552433732313a206f70657261746f7220717565727920666f72206e6f6e657860008201527f697374656e7420746f6b656e0000000000000000000000000000000000000000602082015250565b7f4552433732313a20617070726f76652063616c6c6572206973206e6f74206f7760008201527f6e6572206e6f7220617070726f76656420666f7220616c6c0000000000000000602082015250565b7f4552433732313a2062616c616e636520717565727920666f7220746865207a6560008201527f726f206164647265737300000000000000000000000000000000000000000000602082015250565b7f4552433732313a206f776e657220717565727920666f72206e6f6e657869737460008201527f656e7420746f6b656e0000000000000000000000000000000000000000000000602082015250565b7f45524337323155524953746f726167653a2055524920736574206f66206e6f6e60008201527f6578697374656e7420746f6b656e000000000000000000000000000000000000602082015250565b7f4552433732313a206d696e7420746f20746865207a65726f2061646472657373600082015250565b7f45524337323155524953746f726167653a2055524920717565727920666f722060008201527f6e6f6e6578697374656e7420746f6b656e000000000000000000000000000000602082015250565b7f4552433732313a20617070726f76656420717565727920666f72206e6f6e657860008201527f697374656e7420746f6b656e0000000000000000000000000000000000000000602082015250565b7f596f752068617665206e6f20534254206d696e74656400000000000000000000600082015250565b7f4f776e61626c653a2063616c6c6572206973206e6f7420746865206f776e6572600082015250565b7f4552433732314d657461646174613a2055524920717565727920666f72206e6f60008201527f6e6578697374656e7420746f6b656e0000000000000000000000000000000000602082015250565b7f4552433732313a20617070726f76616c20746f2063757272656e74206f776e6560008201527f7200000000000000000000000000000000000000000000000000000000000000602082015250565b7f4552433732313a207472616e736665722063616c6c6572206973206e6f74206f60008201527f776e6572206e6f7220617070726f766564000000000000000000000000000000602082015250565b7f4552433732314275726e61626c653a2063616c6c6572206973206e6f74206f7760008201527f6e6572206e6f7220617070726f76656400000000000000000000000000000000602082015250565b7f4d696e74696e67206d6f7265207468616e206f6e65206973206e6f7420616c6c60008201527f6f77656400000000000000000000000000000000000000000000000000000000602082015250565b61384781612ff8565b811461385257600080fd5b50565b61385e8161300a565b811461386957600080fd5b50565b61387581613016565b811461388057600080fd5b50565b61388c81613062565b811461389757600080fd5b5056fea2646970667358221220ca45c67a8aca4aeea6688475176b6eaf585d140c15feecbf59a3d2ddb06e83a664736f6c63430008040033",
  "linkReferences": {},
  "deployedLinkReferences": {}
}