{
  "address": "0x503E141DBEeC1b0f9D387F1067dFcaeAAfDDa8da",
  "_format": "hh-sol-artifact-1",
  "contractName": "CreatorTip",
  "sourceName": "contracts/CreatorTip.sol",
  "abi": [
    {
      "inputs": [
        {
          "internalType": "address",
          "name": "creatorSBTAddress",
          "type": "address"
        }
      ],
      "stateMutability": "nonpayable",
      "type": "constructor"
    },
    {
      "anonymous": false,
      "inputs": [
        {
          "indexed": true,
          "internalType": "address",
          "name": "_from",
          "type": "address"
        },
        {
          "indexed": true,
          "internalType": "address",
          "name": "_to",
          "type": "address"
        },
        {
          "indexed": false,
          "internalType": "uint256",
          "name": "amount",
          "type": "uint256"
        }
      ],
      "name": "CreatorTipped",
      "type": "event"
    },
    {
      "anonymous": false,
      "inputs": [
        {
          "indexed": true,
          "internalType": "address",
          "name": "_creator",
          "type": "address"
        },
        {
          "indexed": true,
          "internalType": "address",
          "name": "_to",
          "type": "address"
        },
        {
          "indexed": false,
          "internalType": "uint256",
          "name": "amount",
          "type": "uint256"
        }
      ],
      "name": "CreatorWithdraw",
      "type": "event"
    },
    {
      "anonymous": false,
      "inputs": [
        {
          "indexed": true,
          "internalType": "address",
          "name": "previousOwner",
          "type": "address"
        },
        {
          "indexed": true,
          "internalType": "address",
          "name": "newOwner",
          "type": "address"
        }
      ],
      "name": "OwnershipTransferred",
      "type": "event"
    },
    {
      "stateMutability": "payable",
      "type": "fallback"
    },
    {
      "inputs": [],
      "name": "owner",
      "outputs": [
        {
          "internalType": "address",
          "name": "",
          "type": "address"
        }
      ],
      "stateMutability": "view",
      "type": "function"
    },
    {
      "inputs": [],
      "name": "renounceOwnership",
      "outputs": [],
      "stateMutability": "nonpayable",
      "type": "function"
    },
    {
      "inputs": [
        {
          "internalType": "address",
          "name": "_creator",
          "type": "address"
        }
      ],
      "name": "tipCreator",
      "outputs": [],
      "stateMutability": "payable",
      "type": "function"
    },
    {
      "inputs": [
        {
          "internalType": "address",
          "name": "newOwner",
          "type": "address"
        }
      ],
      "name": "transferOwnership",
      "outputs": [],
      "stateMutability": "nonpayable",
      "type": "function"
    },
    {
      "inputs": [
        {
          "internalType": "address",
          "name": "_to",
          "type": "address"
        }
      ],
      "name": "withdrawTip",
      "outputs": [],
      "stateMutability": "nonpayable",
      "type": "function"
    },
    {
      "stateMutability": "payable",
      "type": "receive"
    }
  ],
  "bytecode": "0x608060405234801561001057600080fd5b5060405162000f6e38038062000f6e83398181016040528101906100349190610178565b61005061004561009760201b60201c565b61009f60201b60201c565b80600160006101000a81548173ffffffffffffffffffffffffffffffffffffffff021916908373ffffffffffffffffffffffffffffffffffffffff160217905550506101ea565b600033905090565b60008060009054906101000a900473ffffffffffffffffffffffffffffffffffffffff169050816000806101000a81548173ffffffffffffffffffffffffffffffffffffffff021916908373ffffffffffffffffffffffffffffffffffffffff1602179055508173ffffffffffffffffffffffffffffffffffffffff168173ffffffffffffffffffffffffffffffffffffffff167f8be0079c531659141344cd1fd0a4f28419497f9722a3daafe3b4186f6b6457e060405160405180910390a35050565b600081519050610172816101d3565b92915050565b60006020828403121561018a57600080fd5b600061019884828501610163565b91505092915050565b60006101ac826101b3565b9050919050565b600073ffffffffffffffffffffffffffffffffffffffff82169050919050565b6101dc816101a1565b81146101e757600080fd5b50565b610d7480620001fa6000396000f3fe60806040526004361061004e5760003560e01c80630f7ffe9f1461005757806365c4e4aa14610080578063715018a61461009c5780638da5cb5b146100b3578063f2fde38b146100de57610055565b3661005557005b005b34801561006357600080fd5b5061007e600480360381019061007991906108a4565b610107565b005b61009a600480360381019061009591906108a4565b610416565b005b3480156100a857600080fd5b506100b1610605565b005b3480156100bf57600080fd5b506100c861068d565b6040516100d59190610a1e565b60405180910390f35b3480156100ea57600080fd5b50610105600480360381019061010091906108a4565b6106b6565b005b3360018060009054906101000a900473ffffffffffffffffffffffffffffffffffffffff1673ffffffffffffffffffffffffffffffffffffffff166370a08231836040518263ffffffff1660e01b81526004016101649190610a1e565b60206040518083038186803b15801561017c57600080fd5b505afa158015610190573d6000803e3d6000fd5b505050506040513d601f19601f820116820180604052508101906101b491906108cd565b146101f4576040517f08c379a00000000000000000000000000000000000000000000000000000000081526004016101eb90610ab9565b60405180910390fd5b6000600260003373ffffffffffffffffffffffffffffffffffffffff1673ffffffffffffffffffffffffffffffffffffffff1681526020019081526020016000205411610276576040517f08c379a000000000000000000000000000000000000000000000000000000000815260040161026d90610a79565b60405180910390fd5b6000600260003373ffffffffffffffffffffffffffffffffffffffff1673ffffffffffffffffffffffffffffffffffffffff1681526020019081526020016000205490506000600260003373ffffffffffffffffffffffffffffffffffffffff1673ffffffffffffffffffffffffffffffffffffffff1681526020019081526020016000208190555060008373ffffffffffffffffffffffffffffffffffffffff168260405161032590610a09565b60006040518083038185875af1925050503d8060008114610362576040519150601f19603f3d011682016040523d82523d6000602084013e610367565b606091505b50509050806103ab576040517f08c379a00000000000000000000000000000000000000000000000000000000081526004016103a290610a39565b60405180910390fd5b8373ffffffffffffffffffffffffffffffffffffffff163373ffffffffffffffffffffffffffffffffffffffff167f9e9d296fc20327f4c51b991917397cd7d530fb5caf24682cf79a615ed245d35b846040516104089190610af9565b60405180910390a350505050565b8060018060009054906101000a900473ffffffffffffffffffffffffffffffffffffffff1673ffffffffffffffffffffffffffffffffffffffff166370a08231836040518263ffffffff1660e01b81526004016104739190610a1e565b60206040518083038186803b15801561048b57600080fd5b505afa15801561049f573d6000803e3d6000fd5b505050506040513d601f19601f820116820180604052508101906104c391906108cd565b14610503576040517f08c379a00000000000000000000000000000000000000000000000000000000081526004016104fa90610ab9565b60405180910390fd5b60003411610546576040517f08c379a000000000000000000000000000000000000000000000000000000000815260040161053d90610a99565b60405180910390fd5b34600260008473ffffffffffffffffffffffffffffffffffffffff1673ffffffffffffffffffffffffffffffffffffffff16815260200190815260200160002060008282546105959190610b30565b925050819055508173ffffffffffffffffffffffffffffffffffffffff163373ffffffffffffffffffffffffffffffffffffffff167fa32d9d0d87d6c17bab78e0fe62ab9560e6f09ec4a903287bac5dd223e358c186346040516105f99190610af9565b60405180910390a35050565b61060d6107ae565b73ffffffffffffffffffffffffffffffffffffffff1661062b61068d565b73ffffffffffffffffffffffffffffffffffffffff1614610681576040517f08c379a000000000000000000000000000000000000000000000000000000000815260040161067890610ad9565b60405180910390fd5b61068b60006107b6565b565b60008060009054906101000a900473ffffffffffffffffffffffffffffffffffffffff16905090565b6106be6107ae565b73ffffffffffffffffffffffffffffffffffffffff166106dc61068d565b73ffffffffffffffffffffffffffffffffffffffff1614610732576040517f08c379a000000000000000000000000000000000000000000000000000000000815260040161072990610ad9565b60405180910390fd5b600073ffffffffffffffffffffffffffffffffffffffff168173ffffffffffffffffffffffffffffffffffffffff1614156107a2576040517f08c379a000000000000000000000000000000000000000000000000000000000815260040161079990610a59565b60405180910390fd5b6107ab816107b6565b50565b600033905090565b60008060009054906101000a900473ffffffffffffffffffffffffffffffffffffffff169050816000806101000a81548173ffffffffffffffffffffffffffffffffffffffff021916908373ffffffffffffffffffffffffffffffffffffffff1602179055508173ffffffffffffffffffffffffffffffffffffffff168173ffffffffffffffffffffffffffffffffffffffff167f8be0079c531659141344cd1fd0a4f28419497f9722a3daafe3b4186f6b6457e060405160405180910390a35050565b60008135905061088981610d10565b92915050565b60008151905061089e81610d27565b92915050565b6000602082840312156108b657600080fd5b60006108c48482850161087a565b91505092915050565b6000602082840312156108df57600080fd5b60006108ed8482850161088f565b91505092915050565b6108ff81610b86565b82525050565b6000610912601283610b1f565b915061091d82610bf1565b602082019050919050565b6000610935602683610b1f565b915061094082610c1a565b604082019050919050565b6000610958601c83610b1f565b915061096382610c69565b602082019050919050565b600061097b601d83610b1f565b915061098682610c92565b602082019050919050565b600061099e601883610b1f565b91506109a982610cbb565b602082019050919050565b60006109c1602083610b1f565b91506109cc82610ce4565b602082019050919050565b60006109e4600083610b14565b91506109ef82610d0d565b600082019050919050565b610a0381610bb8565b82525050565b6000610a14826109d7565b9150819050919050565b6000602082019050610a3360008301846108f6565b92915050565b60006020820190508181036000830152610a5281610905565b9050919050565b60006020820190508181036000830152610a7281610928565b9050919050565b60006020820190508181036000830152610a928161094b565b9050919050565b60006020820190508181036000830152610ab28161096e565b9050919050565b60006020820190508181036000830152610ad281610991565b9050919050565b60006020820190508181036000830152610af2816109b4565b9050919050565b6000602082019050610b0e60008301846109fa565b92915050565b600081905092915050565b600082825260208201905092915050565b6000610b3b82610bb8565b9150610b4683610bb8565b9250827fffffffffffffffffffffffffffffffffffffffffffffffffffffffffffffffff03821115610b7b57610b7a610bc2565b5b828201905092915050565b6000610b9182610b98565b9050919050565b600073ffffffffffffffffffffffffffffffffffffffff82169050919050565b6000819050919050565b7f4e487b7100000000000000000000000000000000000000000000000000000000600052601160045260246000fd5b7f4661696c656420746f2077697468647261770000000000000000000000000000600082015250565b7f4f776e61626c653a206e6577206f776e657220697320746865207a65726f206160008201527f6464726573730000000000000000000000000000000000000000000000000000602082015250565b7f596f7520646f6e74206861766520656e6f7567682062616c616e636500000000600082015250565b7f416d6f756e74206d7573742062652067726561746572207468616e2030000000600082015250565b7f41646472657373206973206e6f7420612063726561746f720000000000000000600082015250565b7f4f776e61626c653a2063616c6c6572206973206e6f7420746865206f776e6572600082015250565b50565b610d1981610b86565b8114610d2457600080fd5b50565b610d3081610bb8565b8114610d3b57600080fd5b5056fea264697066735822122015ae28fd9afad30ca1075c20dbb55c280ef71119f157c9c7f28a98b0859613bb64736f6c63430008040033",
  "linkReferences": {},
  "deployedLinkReferences": {}
}