{
  "address": "0x85EcbeC8AA1308Ddaf0b0432e358193aE3B0e8b7",
  "_format": "hh-sol-artifact-1",
  "contractName": "MusicNFT",
  "sourceName": "contracts/MusicNFT.sol",
  "abi": [
    {
      "inputs": [
        {
          "internalType": "address",
          "name": "CreatorSBTAddress",
          "type": "address"
        }
      ],
      "stateMutability": "nonpayable",
      "type": "constructor"
    },
    {
      "anonymous": false,
      "inputs": [
        {
          "indexed": true,
          "internalType": "address",
          "name": "owner",
          "type": "address"
        },
        {
          "indexed": true,
          "internalType": "address",
          "name": "approved",
          "type": "address"
        },
        {
          "indexed": true,
          "internalType": "uint256",
          "name": "tokenId",
          "type": "uint256"
        }
      ],
      "name": "Approval",
      "type": "event"
    },
    {
      "anonymous": false,
      "inputs": [
        {
          "indexed": true,
          "internalType": "address",
          "name": "owner",
          "type": "address"
        },
        {
          "indexed": true,
          "internalType": "address",
          "name": "operator",
          "type": "address"
        },
        {
          "indexed": false,
          "internalType": "bool",
          "name": "approved",
          "type": "bool"
        }
      ],
      "name": "ApprovalForAll",
      "type": "event"
    },
    {
      "anonymous": false,
      "inputs": [
        {
          "indexed": true,
          "internalType": "address",
          "name": "from",
          "type": "address"
        },
        {
          "indexed": true,
          "internalType": "address",
          "name": "to",
          "type": "address"
        },
        {
          "indexed": true,
          "internalType": "uint256",
          "name": "tokenId",
          "type": "uint256"
        }
      ],
      "name": "Transfer",
      "type": "event"
    },
    {
      "inputs": [
        {
          "internalType": "address",
          "name": "to",
          "type": "address"
        },
        {
          "internalType": "uint256",
          "name": "tokenId",
          "type": "uint256"
        }
      ],
      "name": "approve",
      "outputs": [],
      "stateMutability": "nonpayable",
      "type": "function"
    },
    {
      "inputs": [
        {
          "internalType": "address",
          "name": "owner",
          "type": "address"
        }
      ],
      "name": "balanceOf",
      "outputs": [
        {
          "internalType": "uint256",
          "name": "",
          "type": "uint256"
        }
      ],
      "stateMutability": "view",
      "type": "function"
    },
    {
      "inputs": [
        {
          "internalType": "uint256",
          "name": "tokenId",
          "type": "uint256"
        }
      ],
      "name": "getApproved",
      "outputs": [
        {
          "internalType": "address",
          "name": "",
          "type": "address"
        }
      ],
      "stateMutability": "view",
      "type": "function"
    },
    {
      "inputs": [
        {
          "internalType": "address",
          "name": "owner",
          "type": "address"
        },
        {
          "internalType": "address",
          "name": "operator",
          "type": "address"
        }
      ],
      "name": "isApprovedForAll",
      "outputs": [
        {
          "internalType": "bool",
          "name": "",
          "type": "bool"
        }
      ],
      "stateMutability": "view",
      "type": "function"
    },
    {
      "inputs": [
        {
          "internalType": "string",
          "name": "uri",
          "type": "string"
        }
      ],
      "name": "mintMusic",
      "outputs": [],
      "stateMutability": "nonpayable",
      "type": "function"
    },
    {
      "inputs": [],
      "name": "name",
      "outputs": [
        {
          "internalType": "string",
          "name": "",
          "type": "string"
        }
      ],
      "stateMutability": "view",
      "type": "function"
    },
    {
      "inputs": [
        {
          "internalType": "uint256",
          "name": "tokenId",
          "type": "uint256"
        }
      ],
      "name": "ownerOf",
      "outputs": [
        {
          "internalType": "address",
          "name": "",
          "type": "address"
        }
      ],
      "stateMutability": "view",
      "type": "function"
    },
    {
      "inputs": [
        {
          "internalType": "address",
          "name": "from",
          "type": "address"
        },
        {
          "internalType": "address",
          "name": "to",
          "type": "address"
        },
        {
          "internalType": "uint256",
          "name": "tokenId",
          "type": "uint256"
        }
      ],
      "name": "safeTransferFrom",
      "outputs": [],
      "stateMutability": "nonpayable",
      "type": "function"
    },
    {
      "inputs": [
        {
          "internalType": "address",
          "name": "from",
          "type": "address"
        },
        {
          "internalType": "address",
          "name": "to",
          "type": "address"
        },
        {
          "internalType": "uint256",
          "name": "tokenId",
          "type": "uint256"
        },
        {
          "internalType": "bytes",
          "name": "_data",
          "type": "bytes"
        }
      ],
      "name": "safeTransferFrom",
      "outputs": [],
      "stateMutability": "nonpayable",
      "type": "function"
    },
    {
      "inputs": [
        {
          "internalType": "address",
          "name": "operator",
          "type": "address"
        },
        {
          "internalType": "bool",
          "name": "approved",
          "type": "bool"
        }
      ],
      "name": "setApprovalForAll",
      "outputs": [],
      "stateMutability": "nonpayable",
      "type": "function"
    },
    {
      "inputs": [
        {
          "internalType": "bytes4",
          "name": "interfaceId",
          "type": "bytes4"
        }
      ],
      "name": "supportsInterface",
      "outputs": [
        {
          "internalType": "bool",
          "name": "",
          "type": "bool"
        }
      ],
      "stateMutability": "view",
      "type": "function"
    },
    {
      "inputs": [],
      "name": "symbol",
      "outputs": [
        {
          "internalType": "string",
          "name": "",
          "type": "string"
        }
      ],
      "stateMutability": "view",
      "type": "function"
    },
    {
      "inputs": [
        {
          "internalType": "uint256",
          "name": "index",
          "type": "uint256"
        }
      ],
      "name": "tokenByIndex",
      "outputs": [
        {
          "internalType": "uint256",
          "name": "",
          "type": "uint256"
        }
      ],
      "stateMutability": "view",
      "type": "function"
    },
    {
      "inputs": [
        {
          "internalType": "address",
          "name": "owner",
          "type": "address"
        },
        {
          "internalType": "uint256",
          "name": "index",
          "type": "uint256"
        }
      ],
      "name": "tokenOfOwnerByIndex",
      "outputs": [
        {
          "internalType": "uint256",
          "name": "",
          "type": "uint256"
        }
      ],
      "stateMutability": "view",
      "type": "function"
    },
    {
      "inputs": [
        {
          "internalType": "uint256",
          "name": "tokenId",
          "type": "uint256"
        }
      ],
      "name": "tokenURI",
      "outputs": [
        {
          "internalType": "string",
          "name": "",
          "type": "string"
        }
      ],
      "stateMutability": "view",
      "type": "function"
    },
    {
      "inputs": [],
      "name": "totalSupply",
      "outputs": [
        {
          "internalType": "uint256",
          "name": "",
          "type": "uint256"
        }
      ],
      "stateMutability": "view",
      "type": "function"
    },
    {
      "inputs": [
        {
          "internalType": "address",
          "name": "from",
          "type": "address"
        },
        {
          "internalType": "address",
          "name": "to",
          "type": "address"
        },
        {
          "internalType": "uint256",
          "name": "tokenId",
          "type": "uint256"
        }
      ],
      "name": "transferFrom",
      "outputs": [],
      "stateMutability": "nonpayable",
      "type": "function"
    }
  ],
  "bytecode": "0x60806040523480156200001157600080fd5b5060405162003890380380620038908339818101604052810190620000379190620001e6565b6040518060400160405280601081526020017f47656e72657a204d75736963204e4654000000000000000000000000000000008152506040518060400160405280600381526020017f7a4d5400000000000000000000000000000000000000000000000000000000008152508160009080519060200190620000bb9291906200011f565b508060019080519060200190620000d49291906200011f565b50505080600c60006101000a81548173ffffffffffffffffffffffffffffffffffffffff021916908373ffffffffffffffffffffffffffffffffffffffff16021790555050620002c5565b8280546200012d9062000246565b90600052602060002090601f0160209004810192826200015157600085556200019d565b82601f106200016c57805160ff19168380011785556200019d565b828001600101855582156200019d579182015b828111156200019c5782518255916020019190600101906200017f565b5b509050620001ac9190620001b0565b5090565b5b80821115620001cb576000816000905550600101620001b1565b5090565b600081519050620001e081620002ab565b92915050565b600060208284031215620001f957600080fd5b60006200020984828501620001cf565b91505092915050565b60006200021f8262000226565b9050919050565b600073ffffffffffffffffffffffffffffffffffffffff82169050919050565b600060028204905060018216806200025f57607f821691505b602082108114156200027657620002756200027c565b5b50919050565b7f4e487b7100000000000000000000000000000000000000000000000000000000600052602260045260246000fd5b620002b68162000212565b8114620002c257600080fd5b50565b6135bb80620002d56000396000f3fe608060405234801561001057600080fd5b506004361061010b5760003560e01c806342842e0e116100a257806395d89b411161007157806395d89b41146102dc578063a22cb465146102fa578063b88d4fde14610316578063c87b56dd14610332578063e985e9c5146103625761010b565b806342842e0e146102305780634f6ccce71461024c5780636352211e1461027c57806370a08231146102ac5761010b565b8063095ea7b3116100de578063095ea7b3146101aa57806318160ddd146101c657806323b872dd146101e45780632f745c59146102005761010b565b8063010dfa411461011057806301ffc9a71461012c57806306fdde031461015c578063081812fc1461017a575b600080fd5b61012a600480360381019061012591906124ed565b610392565b005b6101466004803603810190610141919061249b565b6104f4565b6040516101539190612978565b60405180910390f35b610164610506565b6040516101719190612993565b60405180910390f35b610194600480360381019061018f9190612532565b610598565b6040516101a19190612911565b60405180910390f35b6101c460048036038101906101bf919061245f565b61061d565b005b6101ce610735565b6040516101db9190612c15565b60405180910390f35b6101fe60048036038101906101f99190612359565b610742565b005b61021a6004803603810190610215919061245f565b6107a2565b6040516102279190612c15565b60405180910390f35b61024a60048036038101906102459190612359565b610847565b005b61026660048036038101906102619190612532565b610867565b6040516102739190612c15565b60405180910390f35b61029660048036038101906102919190612532565b6108fe565b6040516102a39190612911565b60405180910390f35b6102c660048036038101906102c191906122f4565b6109b0565b6040516102d39190612c15565b60405180910390f35b6102e4610a68565b6040516102f19190612993565b60405180910390f35b610314600480360381019061030f9190612423565b610afa565b005b610330600480360381019061032b91906123a8565b610b10565b005b61034c60048036038101906103479190612532565b610b72565b6040516103599190612993565b60405180910390f35b61037c6004803603810190610377919061231d565b610b84565b6040516103899190612978565b60405180910390f35b6001600c60009054906101000a900473ffffffffffffffffffffffffffffffffffffffff1673ffffffffffffffffffffffffffffffffffffffff166370a08231336040518263ffffffff1660e01b81526004016103ef9190612911565b60206040518083038186803b15801561040757600080fd5b505afa15801561041b573d6000803e3d6000fd5b505050506040513d601f19601f8201168201806040525081019061043f919061255b565b1461047f576040517f08c379a000000000000000000000000000000000000000000000000000000000815260040161047690612b15565b60405180910390fd5b610489600b610c18565b6000610495600b610c2e565b90506104a13382610c3c565b6104ef8184848080601f016020809104026020016040519081016040528093929190818152602001838380828437600081840152601f19601f82011690508083019250505050505050610c5a565b505050565b60006104ff82610cce565b9050919050565b60606000805461051590612e3a565b80601f016020809104026020016040519081016040528092919081815260200182805461054190612e3a565b801561058e5780601f106105635761010080835404028352916020019161058e565b820191906000526020600020905b81548152906001019060200180831161057157829003601f168201915b5050505050905090565b60006105a382610d48565b6105e2576040517f08c379a00000000000000000000000000000000000000000000000000000000081526004016105d990612b75565b60405180910390fd5b6004600083815260200190815260200160002060009054906101000a900473ffffffffffffffffffffffffffffffffffffffff169050919050565b6000610628826108fe565b90508073ffffffffffffffffffffffffffffffffffffffff168373ffffffffffffffffffffffffffffffffffffffff161415610699576040517f08c379a000000000000000000000000000000000000000000000000000000000815260040161069090612bb5565b60405180910390fd5b8073ffffffffffffffffffffffffffffffffffffffff166106b8610db4565b73ffffffffffffffffffffffffffffffffffffffff1614806106e757506106e6816106e1610db4565b610b84565b5b610726576040517f08c379a000000000000000000000000000000000000000000000000000000000815260040161071d90612a95565b60405180910390fd5b6107308383610dbc565b505050565b6000600880549050905090565b61075361074d610db4565b82610e75565b610792576040517f08c379a000000000000000000000000000000000000000000000000000000000815260040161078990612bd5565b60405180910390fd5b61079d838383610f53565b505050565b60006107ad836109b0565b82106107ee576040517f08c379a00000000000000000000000000000000000000000000000000000000081526004016107e5906129b5565b60405180910390fd5b600660008473ffffffffffffffffffffffffffffffffffffffff1673ffffffffffffffffffffffffffffffffffffffff168152602001908152602001600020600083815260200190815260200160002054905092915050565b61086283838360405180602001604052806000815250610b10565b505050565b6000610871610735565b82106108b2576040517f08c379a00000000000000000000000000000000000000000000000000000000081526004016108a990612bf5565b60405180910390fd5b600882815481106108ec577f4e487b7100000000000000000000000000000000000000000000000000000000600052603260045260246000fd5b90600052602060002001549050919050565b6000806002600084815260200190815260200160002060009054906101000a900473ffffffffffffffffffffffffffffffffffffffff169050600073ffffffffffffffffffffffffffffffffffffffff168173ffffffffffffffffffffffffffffffffffffffff1614156109a7576040517f08c379a000000000000000000000000000000000000000000000000000000000815260040161099e90612ad5565b60405180910390fd5b80915050919050565b60008073ffffffffffffffffffffffffffffffffffffffff168273ffffffffffffffffffffffffffffffffffffffff161415610a21576040517f08c379a0000000000000000000000000000000000000000000000000000000008152600401610a1890612ab5565b60405180910390fd5b600360008373ffffffffffffffffffffffffffffffffffffffff1673ffffffffffffffffffffffffffffffffffffffff168152602001908152602001600020549050919050565b606060018054610a7790612e3a565b80601f0160208091040260200160405190810160405280929190818152602001828054610aa390612e3a565b8015610af05780601f10610ac557610100808354040283529160200191610af0565b820191906000526020600020905b815481529060010190602001808311610ad357829003601f168201915b5050505050905090565b610b0c610b05610db4565b83836111ba565b5050565b610b21610b1b610db4565b83610e75565b610b60576040517f08c379a0000000000000000000000000000000000000000000000000000000008152600401610b5790612bd5565b60405180910390fd5b610b6c84848484611327565b50505050565b6060610b7d82611383565b9050919050565b6000600560008473ffffffffffffffffffffffffffffffffffffffff1673ffffffffffffffffffffffffffffffffffffffff16815260200190815260200160002060008373ffffffffffffffffffffffffffffffffffffffff1673ffffffffffffffffffffffffffffffffffffffff16815260200190815260200160002060009054906101000a900460ff16905092915050565b6001816000016000828254019250508190555050565b600081600001549050919050565b610c568282604051806020016040528060008152506114d5565b5050565b610c6382610d48565b610ca2576040517f08c379a0000000000000000000000000000000000000000000000000000000008152600401610c9990612af5565b60405180910390fd5b80600a60008481526020019081526020016000209080519060200190610cc9929190612121565b505050565b60007f780e9d63000000000000000000000000000000000000000000000000000000007bffffffffffffffffffffffffffffffffffffffffffffffffffffffff1916827bffffffffffffffffffffffffffffffffffffffffffffffffffffffff19161480610d415750610d4082611530565b5b9050919050565b60008073ffffffffffffffffffffffffffffffffffffffff166002600084815260200190815260200160002060009054906101000a900473ffffffffffffffffffffffffffffffffffffffff1673ffffffffffffffffffffffffffffffffffffffff1614159050919050565b600033905090565b816004600083815260200190815260200160002060006101000a81548173ffffffffffffffffffffffffffffffffffffffff021916908373ffffffffffffffffffffffffffffffffffffffff160217905550808273ffffffffffffffffffffffffffffffffffffffff16610e2f836108fe565b73ffffffffffffffffffffffffffffffffffffffff167f8c5be1e5ebec7d5bd14f71427d1e84f3dd0314c0f7b2291e5b200ac8c7c3b92560405160405180910390a45050565b6000610e8082610d48565b610ebf576040517f08c379a0000000000000000000000000000000000000000000000000000000008152600401610eb690612a75565b60405180910390fd5b6000610eca836108fe565b90508073ffffffffffffffffffffffffffffffffffffffff168473ffffffffffffffffffffffffffffffffffffffff161480610f0c5750610f0b8185610b84565b5b80610f4a57508373ffffffffffffffffffffffffffffffffffffffff16610f3284610598565b73ffffffffffffffffffffffffffffffffffffffff16145b91505092915050565b8273ffffffffffffffffffffffffffffffffffffffff16610f73826108fe565b73ffffffffffffffffffffffffffffffffffffffff1614610fc9576040517f08c379a0000000000000000000000000000000000000000000000000000000008152600401610fc0906129f5565b60405180910390fd5b600073ffffffffffffffffffffffffffffffffffffffff168273ffffffffffffffffffffffffffffffffffffffff161415611039576040517f08c379a000000000000000000000000000000000000000000000000000000000815260040161103090612a35565b60405180910390fd5b611044838383611612565b61104f600082610dbc565b6001600360008573ffffffffffffffffffffffffffffffffffffffff1673ffffffffffffffffffffffffffffffffffffffff168152602001908152602001600020600082825461109f9190612d50565b925050819055506001600360008473ffffffffffffffffffffffffffffffffffffffff1673ffffffffffffffffffffffffffffffffffffffff16815260200190815260200160002060008282546110f69190612cc9565b92505081905550816002600083815260200190815260200160002060006101000a81548173ffffffffffffffffffffffffffffffffffffffff021916908373ffffffffffffffffffffffffffffffffffffffff160217905550808273ffffffffffffffffffffffffffffffffffffffff168473ffffffffffffffffffffffffffffffffffffffff167fddf252ad1be2c89b69c2b068fc378daa952ba7f163c4a11628f55a4df523b3ef60405160405180910390a46111b5838383611622565b505050565b8173ffffffffffffffffffffffffffffffffffffffff168373ffffffffffffffffffffffffffffffffffffffff161415611229576040517f08c379a000000000000000000000000000000000000000000000000000000000815260040161122090612a55565b60405180910390fd5b80600560008573ffffffffffffffffffffffffffffffffffffffff1673ffffffffffffffffffffffffffffffffffffffff16815260200190815260200160002060008473ffffffffffffffffffffffffffffffffffffffff1673ffffffffffffffffffffffffffffffffffffffff16815260200190815260200160002060006101000a81548160ff0219169083151502179055508173ffffffffffffffffffffffffffffffffffffffff168373ffffffffffffffffffffffffffffffffffffffff167f17307eab39ab6107e8899845ad3d59bd9653f200f220920489ca2b5937696c318360405161131a9190612978565b60405180910390a3505050565b611332848484610f53565b61133e84848484611627565b61137d576040517f08c379a0000000000000000000000000000000000000000000000000000000008152600401611374906129d5565b60405180910390fd5b50505050565b606061138e82610d48565b6113cd576040517f08c379a00000000000000000000000000000000000000000000000000000000081526004016113c490612b55565b60405180910390fd5b6000600a600084815260200190815260200160002080546113ed90612e3a565b80601f016020809104026020016040519081016040528092919081815260200182805461141990612e3a565b80156114665780601f1061143b57610100808354040283529160200191611466565b820191906000526020600020905b81548152906001019060200180831161144957829003601f168201915b5050505050905060006114776117be565b905060008151141561148d5781925050506114d0565b6000825111156114c25780826040516020016114aa9291906128ed565b604051602081830303815290604052925050506114d0565b6114cb846117d5565b925050505b919050565b6114df838361187c565b6114ec6000848484611627565b61152b576040517f08c379a0000000000000000000000000000000000000000000000000000000008152600401611522906129d5565b60405180910390fd5b505050565b60007f80ac58cd000000000000000000000000000000000000000000000000000000007bffffffffffffffffffffffffffffffffffffffffffffffffffffffff1916827bffffffffffffffffffffffffffffffffffffffffffffffffffffffff191614806115fb57507f5b5e139f000000000000000000000000000000000000000000000000000000007bffffffffffffffffffffffffffffffffffffffffffffffffffffffff1916827bffffffffffffffffffffffffffffffffffffffffffffffffffffffff1916145b8061160b575061160a82611a56565b5b9050919050565b61161d838383611ac0565b505050565b505050565b60006116488473ffffffffffffffffffffffffffffffffffffffff16611bd4565b156117b1578373ffffffffffffffffffffffffffffffffffffffff1663150b7a02611671610db4565b8786866040518563ffffffff1660e01b8152600401611693949392919061292c565b602060405180830381600087803b1580156116ad57600080fd5b505af19250505080156116de57506040513d601f19601f820116820180604052508101906116db91906124c4565b60015b611761573d806000811461170e576040519150601f19603f3d011682016040523d82523d6000602084013e611713565b606091505b50600081511415611759576040517f08c379a0000000000000000000000000000000000000000000000000000000008152600401611750906129d5565b60405180910390fd5b805181602001fd5b63150b7a0260e01b7bffffffffffffffffffffffffffffffffffffffffffffffffffffffff1916817bffffffffffffffffffffffffffffffffffffffffffffffffffffffff1916149150506117b6565b600190505b949350505050565b606060405180602001604052806000815250905090565b60606117e082610d48565b61181f576040517f08c379a000000000000000000000000000000000000000000000000000000000815260040161181690612b95565b60405180910390fd5b60006118296117be565b905060008151116118495760405180602001604052806000815250611874565b8061185384611bf7565b6040516020016118649291906128ed565b6040516020818303038152906040525b915050919050565b600073ffffffffffffffffffffffffffffffffffffffff168273ffffffffffffffffffffffffffffffffffffffff1614156118ec576040517f08c379a00000000000000000000000000000000000000000000000000000000081526004016118e390612b35565b60405180910390fd5b6118f581610d48565b15611935576040517f08c379a000000000000000000000000000000000000000000000000000000000815260040161192c90612a15565b60405180910390fd5b61194160008383611612565b6001600360008473ffffffffffffffffffffffffffffffffffffffff1673ffffffffffffffffffffffffffffffffffffffff16815260200190815260200160002060008282546119919190612cc9565b92505081905550816002600083815260200190815260200160002060006101000a81548173ffffffffffffffffffffffffffffffffffffffff021916908373ffffffffffffffffffffffffffffffffffffffff160217905550808273ffffffffffffffffffffffffffffffffffffffff16600073ffffffffffffffffffffffffffffffffffffffff167fddf252ad1be2c89b69c2b068fc378daa952ba7f163c4a11628f55a4df523b3ef60405160405180910390a4611a5260008383611622565b5050565b60007f01ffc9a7000000000000000000000000000000000000000000000000000000007bffffffffffffffffffffffffffffffffffffffffffffffffffffffff1916827bffffffffffffffffffffffffffffffffffffffffffffffffffffffff1916149050919050565b611acb838383611da4565b600073ffffffffffffffffffffffffffffffffffffffff168373ffffffffffffffffffffffffffffffffffffffff161415611b0e57611b0981611da9565b611b4d565b8173ffffffffffffffffffffffffffffffffffffffff168373ffffffffffffffffffffffffffffffffffffffff1614611b4c57611b4b8382611df2565b5b5b600073ffffffffffffffffffffffffffffffffffffffff168273ffffffffffffffffffffffffffffffffffffffff161415611b9057611b8b81611f5f565b611bcf565b8273ffffffffffffffffffffffffffffffffffffffff168273ffffffffffffffffffffffffffffffffffffffff1614611bce57611bcd82826120a2565b5b5b505050565b6000808273ffffffffffffffffffffffffffffffffffffffff163b119050919050565b60606000821415611c3f576040518060400160405280600181526020017f30000000000000000000000000000000000000000000000000000000000000008152509050611d9f565b600082905060005b60008214611c71578080611c5a90612e9d565b915050600a82611c6a9190612d1f565b9150611c47565b60008167ffffffffffffffff811115611cb3577f4e487b7100000000000000000000000000000000000000000000000000000000600052604160045260246000fd5b6040519080825280601f01601f191660200182016040528015611ce55781602001600182028036833780820191505090505b5090505b60008514611d9857600182611cfe9190612d50565b9150600a85611d0d9190612ee6565b6030611d199190612cc9565b60f81b818381518110611d55577f4e487b7100000000000000000000000000000000000000000000000000000000600052603260045260246000fd5b60200101907effffffffffffffffffffffffffffffffffffffffffffffffffffffffffffff1916908160001a905350600a85611d919190612d1f565b9450611ce9565b8093505050505b919050565b505050565b6008805490506009600083815260200190815260200160002081905550600881908060018154018082558091505060019003906000526020600020016000909190919091505550565b60006001611dff846109b0565b611e099190612d50565b9050600060076000848152602001908152602001600020549050818114611eee576000600660008673ffffffffffffffffffffffffffffffffffffffff1673ffffffffffffffffffffffffffffffffffffffff168152602001908152602001600020600084815260200190815260200160002054905080600660008773ffffffffffffffffffffffffffffffffffffffff1673ffffffffffffffffffffffffffffffffffffffff168152602001908152602001600020600084815260200190815260200160002081905550816007600083815260200190815260200160002081905550505b6007600084815260200190815260200160002060009055600660008573ffffffffffffffffffffffffffffffffffffffff1673ffffffffffffffffffffffffffffffffffffffff16815260200190815260200160002060008381526020019081526020016000206000905550505050565b60006001600880549050611f739190612d50565b9050600060096000848152602001908152602001600020549050600060088381548110611fc9577f4e487b7100000000000000000000000000000000000000000000000000000000600052603260045260246000fd5b906000526020600020015490508060088381548110612011577f4e487b7100000000000000000000000000000000000000000000000000000000600052603260045260246000fd5b906000526020600020018190555081600960008381526020019081526020016000208190555060096000858152602001908152602001600020600090556008805480612086577f4e487b7100000000000000000000000000000000000000000000000000000000600052603160045260246000fd5b6001900381819060005260206000200160009055905550505050565b60006120ad836109b0565b905081600660008573ffffffffffffffffffffffffffffffffffffffff1673ffffffffffffffffffffffffffffffffffffffff168152602001908152602001600020600083815260200190815260200160002081905550806007600084815260200190815260200160002081905550505050565b82805461212d90612e3a565b90600052602060002090601f01602090048101928261214f5760008555612196565b82601f1061216857805160ff1916838001178555612196565b82800160010185558215612196579182015b8281111561219557825182559160200191906001019061217a565b5b5090506121a391906121a7565b5090565b5b808211156121c05760008160009055506001016121a8565b5090565b60006121d76121d284612c55565b612c30565b9050828152602081018484840111156121ef57600080fd5b6121fa848285612df8565b509392505050565b60008135905061221181613529565b92915050565b60008135905061222681613540565b92915050565b60008135905061223b81613557565b92915050565b60008151905061225081613557565b92915050565b600082601f83011261226757600080fd5b81356122778482602086016121c4565b91505092915050565b60008083601f84011261229257600080fd5b8235905067ffffffffffffffff8111156122ab57600080fd5b6020830191508360018202830111156122c357600080fd5b9250929050565b6000813590506122d98161356e565b92915050565b6000815190506122ee8161356e565b92915050565b60006020828403121561230657600080fd5b600061231484828501612202565b91505092915050565b6000806040838503121561233057600080fd5b600061233e85828601612202565b925050602061234f85828601612202565b9150509250929050565b60008060006060848603121561236e57600080fd5b600061237c86828701612202565b935050602061238d86828701612202565b925050604061239e868287016122ca565b9150509250925092565b600080600080608085870312156123be57600080fd5b60006123cc87828801612202565b94505060206123dd87828801612202565b93505060406123ee878288016122ca565b925050606085013567ffffffffffffffff81111561240b57600080fd5b61241787828801612256565b91505092959194509250565b6000806040838503121561243657600080fd5b600061244485828601612202565b925050602061245585828601612217565b9150509250929050565b6000806040838503121561247257600080fd5b600061248085828601612202565b9250506020612491858286016122ca565b9150509250929050565b6000602082840312156124ad57600080fd5b60006124bb8482850161222c565b91505092915050565b6000602082840312156124d657600080fd5b60006124e484828501612241565b91505092915050565b6000806020838503121561250057600080fd5b600083013567ffffffffffffffff81111561251a57600080fd5b61252685828601612280565b92509250509250929050565b60006020828403121561254457600080fd5b6000612552848285016122ca565b91505092915050565b60006020828403121561256d57600080fd5b600061257b848285016122df565b91505092915050565b61258d81612d84565b82525050565b61259c81612d96565b82525050565b60006125ad82612c86565b6125b78185612c9c565b93506125c7818560208601612e07565b6125d081612fd3565b840191505092915050565b60006125e682612c91565b6125f08185612cad565b9350612600818560208601612e07565b61260981612fd3565b840191505092915050565b600061261f82612c91565b6126298185612cbe565b9350612639818560208601612e07565b80840191505092915050565b6000612652602b83612cad565b915061265d82612fe4565b604082019050919050565b6000612675603283612cad565b915061268082613033565b604082019050919050565b6000612698602583612cad565b91506126a382613082565b604082019050919050565b60006126bb601c83612cad565b91506126c6826130d1565b602082019050919050565b60006126de602483612cad565b91506126e9826130fa565b604082019050919050565b6000612701601983612cad565b915061270c82613149565b602082019050919050565b6000612724602c83612cad565b915061272f82613172565b604082019050919050565b6000612747603883612cad565b9150612752826131c1565b604082019050919050565b600061276a602a83612cad565b915061277582613210565b604082019050919050565b600061278d602983612cad565b91506127988261325f565b604082019050919050565b60006127b0602e83612cad565b91506127bb826132ae565b604082019050919050565b60006127d3601583612cad565b91506127de826132fd565b602082019050919050565b60006127f6602083612cad565b915061280182613326565b602082019050919050565b6000612819603183612cad565b91506128248261334f565b604082019050919050565b600061283c602c83612cad565b91506128478261339e565b604082019050919050565b600061285f602f83612cad565b915061286a826133ed565b604082019050919050565b6000612882602183612cad565b915061288d8261343c565b604082019050919050565b60006128a5603183612cad565b91506128b08261348b565b604082019050919050565b60006128c8602c83612cad565b91506128d3826134da565b604082019050919050565b6128e781612dee565b82525050565b60006128f98285612614565b91506129058284612614565b91508190509392505050565b60006020820190506129266000830184612584565b92915050565b60006080820190506129416000830187612584565b61294e6020830186612584565b61295b60408301856128de565b818103606083015261296d81846125a2565b905095945050505050565b600060208201905061298d6000830184612593565b92915050565b600060208201905081810360008301526129ad81846125db565b905092915050565b600060208201905081810360008301526129ce81612645565b9050919050565b600060208201905081810360008301526129ee81612668565b9050919050565b60006020820190508181036000830152612a0e8161268b565b9050919050565b60006020820190508181036000830152612a2e816126ae565b9050919050565b60006020820190508181036000830152612a4e816126d1565b9050919050565b60006020820190508181036000830152612a6e816126f4565b9050919050565b60006020820190508181036000830152612a8e81612717565b9050919050565b60006020820190508181036000830152612aae8161273a565b9050919050565b60006020820190508181036000830152612ace8161275d565b9050919050565b60006020820190508181036000830152612aee81612780565b9050919050565b60006020820190508181036000830152612b0e816127a3565b9050919050565b60006020820190508181036000830152612b2e816127c6565b9050919050565b60006020820190508181036000830152612b4e816127e9565b9050919050565b60006020820190508181036000830152612b6e8161280c565b9050919050565b60006020820190508181036000830152612b8e8161282f565b9050919050565b60006020820190508181036000830152612bae81612852565b9050919050565b60006020820190508181036000830152612bce81612875565b9050919050565b60006020820190508181036000830152612bee81612898565b9050919050565b60006020820190508181036000830152612c0e816128bb565b9050919050565b6000602082019050612c2a60008301846128de565b92915050565b6000612c3a612c4b565b9050612c468282612e6c565b919050565b6000604051905090565b600067ffffffffffffffff821115612c7057612c6f612fa4565b5b612c7982612fd3565b9050602081019050919050565b600081519050919050565b600081519050919050565b600082825260208201905092915050565b600082825260208201905092915050565b600081905092915050565b6000612cd482612dee565b9150612cdf83612dee565b9250827fffffffffffffffffffffffffffffffffffffffffffffffffffffffffffffffff03821115612d1457612d13612f17565b5b828201905092915050565b6000612d2a82612dee565b9150612d3583612dee565b925082612d4557612d44612f46565b5b828204905092915050565b6000612d5b82612dee565b9150612d6683612dee565b925082821015612d7957612d78612f17565b5b828203905092915050565b6000612d8f82612dce565b9050919050565b60008115159050919050565b60007fffffffff0000000000000000000000000000000000000000000000000000000082169050919050565b600073ffffffffffffffffffffffffffffffffffffffff82169050919050565b6000819050919050565b82818337600083830152505050565b60005b83811015612e25578082015181840152602081019050612e0a565b83811115612e34576000848401525b50505050565b60006002820490506001821680612e5257607f821691505b60208210811415612e6657612e65612f75565b5b50919050565b612e7582612fd3565b810181811067ffffffffffffffff82111715612e9457612e93612fa4565b5b80604052505050565b6000612ea882612dee565b91507fffffffffffffffffffffffffffffffffffffffffffffffffffffffffffffffff821415612edb57612eda612f17565b5b600182019050919050565b6000612ef182612dee565b9150612efc83612dee565b925082612f0c57612f0b612f46565b5b828206905092915050565b7f4e487b7100000000000000000000000000000000000000000000000000000000600052601160045260246000fd5b7f4e487b7100000000000000000000000000000000000000000000000000000000600052601260045260246000fd5b7f4e487b7100000000000000000000000000000000000000000000000000000000600052602260045260246000fd5b7f4e487b7100000000000000000000000000000000000000000000000000000000600052604160045260246000fd5b6000601f19601f8301169050919050565b7f455243373231456e756d657261626c653a206f776e657220696e646578206f7560008201527f74206f6620626f756e6473000000000000000000000000000000000000000000602082015250565b7f4552433732313a207472616e7366657220746f206e6f6e20455243373231526560008201527f63656976657220696d706c656d656e7465720000000000000000000000000000602082015250565b7f4552433732313a207472616e736665722066726f6d20696e636f72726563742060008201527f6f776e6572000000000000000000000000000000000000000000000000000000602082015250565b7f4552433732313a20746f6b656e20616c7265616479206d696e74656400000000600082015250565b7f4552433732313a207472616e7366657220746f20746865207a65726f2061646460008201527f7265737300000000000000000000000000000000000000000000000000000000602082015250565b7f4552433732313a20617070726f766520746f2063616c6c657200000000000000600082015250565b7f4552433732313a206f70657261746f7220717565727920666f72206e6f6e657860008201527f697374656e7420746f6b656e0000000000000000000000000000000000000000602082015250565b7f4552433732313a20617070726f76652063616c6c6572206973206e6f74206f7760008201527f6e6572206e6f7220617070726f76656420666f7220616c6c0000000000000000602082015250565b7f4552433732313a2062616c616e636520717565727920666f7220746865207a6560008201527f726f206164647265737300000000000000000000000000000000000000000000602082015250565b7f4552433732313a206f776e657220717565727920666f72206e6f6e657869737460008201527f656e7420746f6b656e0000000000000000000000000000000000000000000000602082015250565b7f45524337323155524953746f726167653a2055524920736574206f66206e6f6e60008201527f6578697374656e7420746f6b656e000000000000000000000000000000000000602082015250565b7f596f75206e65656420746f206d696e74207a5342540000000000000000000000600082015250565b7f4552433732313a206d696e7420746f20746865207a65726f2061646472657373600082015250565b7f45524337323155524953746f726167653a2055524920717565727920666f722060008201527f6e6f6e6578697374656e7420746f6b656e000000000000000000000000000000602082015250565b7f4552433732313a20617070726f76656420717565727920666f72206e6f6e657860008201527f697374656e7420746f6b656e0000000000000000000000000000000000000000602082015250565b7f4552433732314d657461646174613a2055524920717565727920666f72206e6f60008201527f6e6578697374656e7420746f6b656e0000000000000000000000000000000000602082015250565b7f4552433732313a20617070726f76616c20746f2063757272656e74206f776e6560008201527f7200000000000000000000000000000000000000000000000000000000000000602082015250565b7f4552433732313a207472616e736665722063616c6c6572206973206e6f74206f60008201527f776e6572206e6f7220617070726f766564000000000000000000000000000000602082015250565b7f455243373231456e756d657261626c653a20676c6f62616c20696e646578206f60008201527f7574206f6620626f756e64730000000000000000000000000000000000000000602082015250565b61353281612d84565b811461353d57600080fd5b50565b61354981612d96565b811461355457600080fd5b50565b61356081612da2565b811461356b57600080fd5b50565b61357781612dee565b811461358257600080fd5b5056fea2646970667358221220a8a21e67e52c341db75c95304195c680cde94edd33eb5177fc2d82b0efbc409664736f6c63430008040033",
  "linkReferences": {},
  "deployedLinkReferences": {}
}