{
  "address": "0x45Faf19f61281E68e03c682a6d78e1CbE0bc38D5",
  "_format": "hh-sol-artifact-1",
  "contractName": "MusicNFT",
  "sourceName": "contracts/MusicNFT.sol",
  "abi": [
    {
      "inputs": [
        {
          "internalType": "address",
          "name": "CreatorSBTAddress",
          "type": "address"
        }
      ],
      "stateMutability": "nonpayable",
      "type": "constructor"
    },
    {
      "anonymous": false,
      "inputs": [
        {
          "indexed": true,
          "internalType": "address",
          "name": "owner",
          "type": "address"
        },
        {
          "indexed": true,
          "internalType": "address",
          "name": "approved",
          "type": "address"
        },
        {
          "indexed": true,
          "internalType": "uint256",
          "name": "tokenId",
          "type": "uint256"
        }
      ],
      "name": "Approval",
      "type": "event"
    },
    {
      "anonymous": false,
      "inputs": [
        {
          "indexed": true,
          "internalType": "address",
          "name": "owner",
          "type": "address"
        },
        {
          "indexed": true,
          "internalType": "address",
          "name": "operator",
          "type": "address"
        },
        {
          "indexed": false,
          "internalType": "bool",
          "name": "approved",
          "type": "bool"
        }
      ],
      "name": "ApprovalForAll",
      "type": "event"
    },
    {
      "anonymous": false,
      "inputs": [
        {
          "indexed": true,
          "internalType": "uint256",
          "name": "_tokenId",
          "type": "uint256"
        }
      ],
      "name": "MusicBurnt",
      "type": "event"
    },
    {
      "anonymous": false,
      "inputs": [
        {
          "indexed": true,
          "internalType": "uint256",
          "name": "_tokenId",
          "type": "uint256"
        },
        {
          "indexed": true,
          "internalType": "address",
          "name": "_owner",
          "type": "address"
        },
        {
          "indexed": false,
          "internalType": "string",
          "name": "uri",
          "type": "string"
        },
        {
          "indexed": false,
          "internalType": "string",
          "name": "title",
          "type": "string"
        },
        {
          "indexed": false,
          "internalType": "string",
          "name": "artist",
          "type": "string"
        },
        {
          "indexed": false,
          "internalType": "string",
          "name": "feature",
          "type": "string"
        }
      ],
      "name": "MusicMinted",
      "type": "event"
    },
    {
      "anonymous": false,
      "inputs": [
        {
          "indexed": true,
          "internalType": "address",
          "name": "from",
          "type": "address"
        },
        {
          "indexed": true,
          "internalType": "address",
          "name": "to",
          "type": "address"
        },
        {
          "indexed": true,
          "internalType": "uint256",
          "name": "tokenId",
          "type": "uint256"
        }
      ],
      "name": "Transfer",
      "type": "event"
    },
    {
      "inputs": [
        {
          "internalType": "address",
          "name": "to",
          "type": "address"
        },
        {
          "internalType": "uint256",
          "name": "tokenId",
          "type": "uint256"
        }
      ],
      "name": "approve",
      "outputs": [],
      "stateMutability": "nonpayable",
      "type": "function"
    },
    {
      "inputs": [
        {
          "internalType": "address",
          "name": "owner",
          "type": "address"
        }
      ],
      "name": "balanceOf",
      "outputs": [
        {
          "internalType": "uint256",
          "name": "",
          "type": "uint256"
        }
      ],
      "stateMutability": "view",
      "type": "function"
    },
    {
      "inputs": [
        {
          "internalType": "uint256",
          "name": "tokenId",
          "type": "uint256"
        }
      ],
      "name": "getApproved",
      "outputs": [
        {
          "internalType": "address",
          "name": "",
          "type": "address"
        }
      ],
      "stateMutability": "view",
      "type": "function"
    },
    {
      "inputs": [
        {
          "internalType": "address",
          "name": "owner",
          "type": "address"
        },
        {
          "internalType": "address",
          "name": "operator",
          "type": "address"
        }
      ],
      "name": "isApprovedForAll",
      "outputs": [
        {
          "internalType": "bool",
          "name": "",
          "type": "bool"
        }
      ],
      "stateMutability": "view",
      "type": "function"
    },
    {
      "inputs": [
        {
          "internalType": "string",
          "name": "uri",
          "type": "string"
        },
        {
          "internalType": "string",
          "name": "_title",
          "type": "string"
        },
        {
          "internalType": "string",
          "name": "_artist",
          "type": "string"
        },
        {
          "internalType": "string",
          "name": "_feature",
          "type": "string"
        }
      ],
      "name": "mintMusic",
      "outputs": [],
      "stateMutability": "nonpayable",
      "type": "function"
    },
    {
      "inputs": [],
      "name": "name",
      "outputs": [
        {
          "internalType": "string",
          "name": "",
          "type": "string"
        }
      ],
      "stateMutability": "view",
      "type": "function"
    },
    {
      "inputs": [
        {
          "internalType": "uint256",
          "name": "tokenId",
          "type": "uint256"
        }
      ],
      "name": "ownerOf",
      "outputs": [
        {
          "internalType": "address",
          "name": "",
          "type": "address"
        }
      ],
      "stateMutability": "view",
      "type": "function"
    },
    {
      "inputs": [
        {
          "internalType": "address",
          "name": "from",
          "type": "address"
        },
        {
          "internalType": "address",
          "name": "to",
          "type": "address"
        },
        {
          "internalType": "uint256",
          "name": "tokenId",
          "type": "uint256"
        }
      ],
      "name": "safeTransferFrom",
      "outputs": [],
      "stateMutability": "nonpayable",
      "type": "function"
    },
    {
      "inputs": [
        {
          "internalType": "address",
          "name": "from",
          "type": "address"
        },
        {
          "internalType": "address",
          "name": "to",
          "type": "address"
        },
        {
          "internalType": "uint256",
          "name": "tokenId",
          "type": "uint256"
        },
        {
          "internalType": "bytes",
          "name": "_data",
          "type": "bytes"
        }
      ],
      "name": "safeTransferFrom",
      "outputs": [],
      "stateMutability": "nonpayable",
      "type": "function"
    },
    {
      "inputs": [
        {
          "internalType": "address",
          "name": "operator",
          "type": "address"
        },
        {
          "internalType": "bool",
          "name": "approved",
          "type": "bool"
        }
      ],
      "name": "setApprovalForAll",
      "outputs": [],
      "stateMutability": "nonpayable",
      "type": "function"
    },
    {
      "inputs": [
        {
          "internalType": "bytes4",
          "name": "interfaceId",
          "type": "bytes4"
        }
      ],
      "name": "supportsInterface",
      "outputs": [
        {
          "internalType": "bool",
          "name": "",
          "type": "bool"
        }
      ],
      "stateMutability": "view",
      "type": "function"
    },
    {
      "inputs": [],
      "name": "symbol",
      "outputs": [
        {
          "internalType": "string",
          "name": "",
          "type": "string"
        }
      ],
      "stateMutability": "view",
      "type": "function"
    },
    {
      "inputs": [
        {
          "internalType": "uint256",
          "name": "index",
          "type": "uint256"
        }
      ],
      "name": "tokenByIndex",
      "outputs": [
        {
          "internalType": "uint256",
          "name": "",
          "type": "uint256"
        }
      ],
      "stateMutability": "view",
      "type": "function"
    },
    {
      "inputs": [
        {
          "internalType": "address",
          "name": "owner",
          "type": "address"
        },
        {
          "internalType": "uint256",
          "name": "index",
          "type": "uint256"
        }
      ],
      "name": "tokenOfOwnerByIndex",
      "outputs": [
        {
          "internalType": "uint256",
          "name": "",
          "type": "uint256"
        }
      ],
      "stateMutability": "view",
      "type": "function"
    },
    {
      "inputs": [
        {
          "internalType": "uint256",
          "name": "tokenId",
          "type": "uint256"
        }
      ],
      "name": "tokenURI",
      "outputs": [
        {
          "internalType": "string",
          "name": "",
          "type": "string"
        }
      ],
      "stateMutability": "view",
      "type": "function"
    },
    {
      "inputs": [],
      "name": "totalSupply",
      "outputs": [
        {
          "internalType": "uint256",
          "name": "",
          "type": "uint256"
        }
      ],
      "stateMutability": "view",
      "type": "function"
    },
    {
      "inputs": [
        {
          "internalType": "address",
          "name": "from",
          "type": "address"
        },
        {
          "internalType": "address",
          "name": "to",
          "type": "address"
        },
        {
          "internalType": "uint256",
          "name": "tokenId",
          "type": "uint256"
        }
      ],
      "name": "transferFrom",
      "outputs": [],
      "stateMutability": "nonpayable",
      "type": "function"
    }
  ],
  "bytecode": "0x60806040523480156200001157600080fd5b5060405162003a9638038062003a968339818101604052810190620000379190620001e6565b6040518060400160405280601081526020017f47656e72657a204d75736963204e4654000000000000000000000000000000008152506040518060400160405280600381526020017f7a4d5400000000000000000000000000000000000000000000000000000000008152508160009080519060200190620000bb9291906200011f565b508060019080519060200190620000d49291906200011f565b50505080600c60006101000a81548173ffffffffffffffffffffffffffffffffffffffff021916908373ffffffffffffffffffffffffffffffffffffffff16021790555050620002c5565b8280546200012d9062000246565b90600052602060002090601f0160209004810192826200015157600085556200019d565b82601f106200016c57805160ff19168380011785556200019d565b828001600101855582156200019d579182015b828111156200019c5782518255916020019190600101906200017f565b5b509050620001ac9190620001b0565b5090565b5b80821115620001cb576000816000905550600101620001b1565b5090565b600081519050620001e081620002ab565b92915050565b600060208284031215620001f957600080fd5b60006200020984828501620001cf565b91505092915050565b60006200021f8262000226565b9050919050565b600073ffffffffffffffffffffffffffffffffffffffff82169050919050565b600060028204905060018216806200025f57607f821691505b602082108114156200027657620002756200027c565b5b50919050565b7f4e487b7100000000000000000000000000000000000000000000000000000000600052602260045260246000fd5b620002b68162000212565b8114620002c257600080fd5b50565b6137c180620002d56000396000f3fe608060405234801561001057600080fd5b506004361061010b5760003560e01c80634f6ccce7116100a2578063a22cb46511610071578063a22cb465146102de578063b88d4fde146102fa578063c87b56dd14610316578063ca3c417714610346578063e985e9c5146103625761010b565b80634f6ccce7146102305780636352211e1461026057806370a082311461029057806395d89b41146102c05761010b565b806318160ddd116100de57806318160ddd146101aa57806323b872dd146101c85780632f745c59146101e457806342842e0e146102145761010b565b806301ffc9a71461011057806306fdde0314610140578063081812fc1461015e578063095ea7b31461018e575b600080fd5b61012a6004803603810190610125919061255d565b610392565b6040516101379190612aea565b60405180910390f35b6101486103a4565b6040516101559190612b68565b60405180910390f35b61017860048036038101906101739190612677565b610436565b6040516101859190612a83565b60405180910390f35b6101a860048036038101906101a39190612521565b6104bb565b005b6101b26105d3565b6040516101bf9190612dea565b60405180910390f35b6101e260048036038101906101dd919061241b565b6105e0565b005b6101fe60048036038101906101f99190612521565b610640565b60405161020b9190612dea565b60405180910390f35b61022e6004803603810190610229919061241b565b6106e5565b005b61024a60048036038101906102459190612677565b610705565b6040516102579190612dea565b60405180910390f35b61027a60048036038101906102759190612677565b61079c565b6040516102879190612a83565b60405180910390f35b6102aa60048036038101906102a591906123b6565b61084e565b6040516102b79190612dea565b60405180910390f35b6102c8610906565b6040516102d59190612b68565b60405180910390f35b6102f860048036038101906102f391906124e5565b610998565b005b610314600480360381019061030f919061246a565b6109ae565b005b610330600480360381019061032b9190612677565b610a10565b60405161033d9190612b68565b60405180910390f35b610360600480360381019061035b91906125af565b610a22565b005b61037c600480360381019061037791906123df565b610bde565b6040516103899190612aea565b60405180910390f35b600061039d82610c72565b9050919050565b6060600080546103b390613040565b80601f01602080910402602001604051908101604052809291908181526020018280546103df90613040565b801561042c5780601f106104015761010080835404028352916020019161042c565b820191906000526020600020905b81548152906001019060200180831161040f57829003601f168201915b5050505050905090565b600061044182610cec565b610480576040517f08c379a000000000000000000000000000000000000000000000000000000000815260040161047790612d4a565b60405180910390fd5b6004600083815260200190815260200160002060009054906101000a900473ffffffffffffffffffffffffffffffffffffffff169050919050565b60006104c68261079c565b90508073ffffffffffffffffffffffffffffffffffffffff168373ffffffffffffffffffffffffffffffffffffffff161415610537576040517f08c379a000000000000000000000000000000000000000000000000000000000815260040161052e90612d8a565b60405180910390fd5b8073ffffffffffffffffffffffffffffffffffffffff16610556610d58565b73ffffffffffffffffffffffffffffffffffffffff16148061058557506105848161057f610d58565b610bde565b5b6105c4576040517f08c379a00000000000000000000000000000000000000000000000000000000081526004016105bb90612c6a565b60405180910390fd5b6105ce8383610d60565b505050565b6000600880549050905090565b6105f16105eb610d58565b82610e19565b610630576040517f08c379a000000000000000000000000000000000000000000000000000000000815260040161062790612daa565b60405180910390fd5b61063b838383610ef7565b505050565b600061064b8361084e565b821061068c576040517f08c379a000000000000000000000000000000000000000000000000000000000815260040161068390612b8a565b60405180910390fd5b600660008473ffffffffffffffffffffffffffffffffffffffff1673ffffffffffffffffffffffffffffffffffffffff168152602001908152602001600020600083815260200190815260200160002054905092915050565b610700838383604051806020016040528060008152506109ae565b505050565b600061070f6105d3565b8210610750576040517f08c379a000000000000000000000000000000000000000000000000000000000815260040161074790612dca565b60405180910390fd5b6008828154811061078a577f4e487b7100000000000000000000000000000000000000000000000000000000600052603260045260246000fd5b90600052602060002001549050919050565b6000806002600084815260200190815260200160002060009054906101000a900473ffffffffffffffffffffffffffffffffffffffff169050600073ffffffffffffffffffffffffffffffffffffffff168173ffffffffffffffffffffffffffffffffffffffff161415610845576040517f08c379a000000000000000000000000000000000000000000000000000000000815260040161083c90612caa565b60405180910390fd5b80915050919050565b60008073ffffffffffffffffffffffffffffffffffffffff168273ffffffffffffffffffffffffffffffffffffffff1614156108bf576040517f08c379a00000000000000000000000000000000000000000000000000000000081526004016108b690612c8a565b60405180910390fd5b600360008373ffffffffffffffffffffffffffffffffffffffff1673ffffffffffffffffffffffffffffffffffffffff168152602001908152602001600020549050919050565b60606001805461091590613040565b80601f016020809104026020016040519081016040528092919081815260200182805461094190613040565b801561098e5780601f106109635761010080835404028352916020019161098e565b820191906000526020600020905b81548152906001019060200180831161097157829003601f168201915b5050505050905090565b6109aa6109a3610d58565b838361115e565b5050565b6109bf6109b9610d58565b83610e19565b6109fe576040517f08c379a00000000000000000000000000000000000000000000000000000000081526004016109f590612daa565b60405180910390fd5b610a0a848484846112cb565b50505050565b6060610a1b82611327565b9050919050565b6001600c60009054906101000a900473ffffffffffffffffffffffffffffffffffffffff1673ffffffffffffffffffffffffffffffffffffffff166370a08231336040518263ffffffff1660e01b8152600401610a7f9190612a83565b60206040518083038186803b158015610a9757600080fd5b505afa158015610aab573d6000803e3d6000fd5b505050506040513d601f19601f82011682018060405250810190610acf91906126a0565b14610b0f576040517f08c379a0000000000000000000000000000000000000000000000000000000008152600401610b0690612cea565b60405180910390fd5b610b19600b611479565b6000610b25600b61148f565b9050610b31338261149d565b610b7f8187878080601f016020809104026020016040519081016040528093929190818152602001838380828437600081840152601f19601f820116905080830192505050505050506114bb565b3373ffffffffffffffffffffffffffffffffffffffff16817f1dbf84f7260e66cd1dd28fe4d4abbf03f39c12371ec2e066c109d1c1b6e1e4ad8888888888604051610bce959493929190612b05565b60405180910390a3505050505050565b6000600560008473ffffffffffffffffffffffffffffffffffffffff1673ffffffffffffffffffffffffffffffffffffffff16815260200190815260200160002060008373ffffffffffffffffffffffffffffffffffffffff1673ffffffffffffffffffffffffffffffffffffffff16815260200190815260200160002060009054906101000a900460ff16905092915050565b60007f780e9d63000000000000000000000000000000000000000000000000000000007bffffffffffffffffffffffffffffffffffffffffffffffffffffffff1916827bffffffffffffffffffffffffffffffffffffffffffffffffffffffff19161480610ce55750610ce48261152f565b5b9050919050565b60008073ffffffffffffffffffffffffffffffffffffffff166002600084815260200190815260200160002060009054906101000a900473ffffffffffffffffffffffffffffffffffffffff1673ffffffffffffffffffffffffffffffffffffffff1614159050919050565b600033905090565b816004600083815260200190815260200160002060006101000a81548173ffffffffffffffffffffffffffffffffffffffff021916908373ffffffffffffffffffffffffffffffffffffffff160217905550808273ffffffffffffffffffffffffffffffffffffffff16610dd38361079c565b73ffffffffffffffffffffffffffffffffffffffff167f8c5be1e5ebec7d5bd14f71427d1e84f3dd0314c0f7b2291e5b200ac8c7c3b92560405160405180910390a45050565b6000610e2482610cec565b610e63576040517f08c379a0000000000000000000000000000000000000000000000000000000008152600401610e5a90612c4a565b60405180910390fd5b6000610e6e8361079c565b90508073ffffffffffffffffffffffffffffffffffffffff168473ffffffffffffffffffffffffffffffffffffffff161480610eb05750610eaf8185610bde565b5b80610eee57508373ffffffffffffffffffffffffffffffffffffffff16610ed684610436565b73ffffffffffffffffffffffffffffffffffffffff16145b91505092915050565b8273ffffffffffffffffffffffffffffffffffffffff16610f178261079c565b73ffffffffffffffffffffffffffffffffffffffff1614610f6d576040517f08c379a0000000000000000000000000000000000000000000000000000000008152600401610f6490612bca565b60405180910390fd5b600073ffffffffffffffffffffffffffffffffffffffff168273ffffffffffffffffffffffffffffffffffffffff161415610fdd576040517f08c379a0000000000000000000000000000000000000000000000000000000008152600401610fd490612c0a565b60405180910390fd5b610fe8838383611611565b610ff3600082610d60565b6001600360008573ffffffffffffffffffffffffffffffffffffffff1673ffffffffffffffffffffffffffffffffffffffff16815260200190815260200160002060008282546110439190612f56565b925050819055506001600360008473ffffffffffffffffffffffffffffffffffffffff1673ffffffffffffffffffffffffffffffffffffffff168152602001908152602001600020600082825461109a9190612ecf565b92505081905550816002600083815260200190815260200160002060006101000a81548173ffffffffffffffffffffffffffffffffffffffff021916908373ffffffffffffffffffffffffffffffffffffffff160217905550808273ffffffffffffffffffffffffffffffffffffffff168473ffffffffffffffffffffffffffffffffffffffff167fddf252ad1be2c89b69c2b068fc378daa952ba7f163c4a11628f55a4df523b3ef60405160405180910390a4611159838383611621565b505050565b8173ffffffffffffffffffffffffffffffffffffffff168373ffffffffffffffffffffffffffffffffffffffff1614156111cd576040517f08c379a00000000000000000000000000000000000000000000000000000000081526004016111c490612c2a565b60405180910390fd5b80600560008573ffffffffffffffffffffffffffffffffffffffff1673ffffffffffffffffffffffffffffffffffffffff16815260200190815260200160002060008473ffffffffffffffffffffffffffffffffffffffff1673ffffffffffffffffffffffffffffffffffffffff16815260200190815260200160002060006101000a81548160ff0219169083151502179055508173ffffffffffffffffffffffffffffffffffffffff168373ffffffffffffffffffffffffffffffffffffffff167f17307eab39ab6107e8899845ad3d59bd9653f200f220920489ca2b5937696c31836040516112be9190612aea565b60405180910390a3505050565b6112d6848484610ef7565b6112e284848484611626565b611321576040517f08c379a000000000000000000000000000000000000000000000000000000000815260040161131890612baa565b60405180910390fd5b50505050565b606061133282610cec565b611371576040517f08c379a000000000000000000000000000000000000000000000000000000000815260040161136890612d2a565b60405180910390fd5b6000600a6000848152602001908152602001600020805461139190613040565b80601f01602080910402602001604051908101604052809291908181526020018280546113bd90613040565b801561140a5780601f106113df5761010080835404028352916020019161140a565b820191906000526020600020905b8154815290600101906020018083116113ed57829003601f168201915b50505050509050600061141b6117bd565b9050600081511415611431578192505050611474565b60008251111561146657808260405160200161144e929190612a5f565b60405160208183030381529060405292505050611474565b61146f846117d4565b925050505b919050565b6001816000016000828254019250508190555050565b600081600001549050919050565b6114b782826040518060200160405280600081525061187b565b5050565b6114c482610cec565b611503576040517f08c379a00000000000000000000000000000000000000000000000000000000081526004016114fa90612cca565b60405180910390fd5b80600a6000848152602001908152602001600020908051906020019061152a92919061217b565b505050565b60007f80ac58cd000000000000000000000000000000000000000000000000000000007bffffffffffffffffffffffffffffffffffffffffffffffffffffffff1916827bffffffffffffffffffffffffffffffffffffffffffffffffffffffff191614806115fa57507f5b5e139f000000000000000000000000000000000000000000000000000000007bffffffffffffffffffffffffffffffffffffffffffffffffffffffff1916827bffffffffffffffffffffffffffffffffffffffffffffffffffffffff1916145b8061160a5750611609826118d6565b5b9050919050565b61161c838383611940565b505050565b505050565b60006116478473ffffffffffffffffffffffffffffffffffffffff16611a54565b156117b0578373ffffffffffffffffffffffffffffffffffffffff1663150b7a02611670610d58565b8786866040518563ffffffff1660e01b81526004016116929493929190612a9e565b602060405180830381600087803b1580156116ac57600080fd5b505af19250505080156116dd57506040513d601f19601f820116820180604052508101906116da9190612586565b60015b611760573d806000811461170d576040519150601f19603f3d011682016040523d82523d6000602084013e611712565b606091505b50600081511415611758576040517f08c379a000000000000000000000000000000000000000000000000000000000815260040161174f90612baa565b60405180910390fd5b805181602001fd5b63150b7a0260e01b7bffffffffffffffffffffffffffffffffffffffffffffffffffffffff1916817bffffffffffffffffffffffffffffffffffffffffffffffffffffffff1916149150506117b5565b600190505b949350505050565b606060405180602001604052806000815250905090565b60606117df82610cec565b61181e576040517f08c379a000000000000000000000000000000000000000000000000000000000815260040161181590612d6a565b60405180910390fd5b60006118286117bd565b905060008151116118485760405180602001604052806000815250611873565b8061185284611a77565b604051602001611863929190612a5f565b6040516020818303038152906040525b915050919050565b6118858383611c24565b6118926000848484611626565b6118d1576040517f08c379a00000000000000000000000000000000000000000000000000000000081526004016118c890612baa565b60405180910390fd5b505050565b60007f01ffc9a7000000000000000000000000000000000000000000000000000000007bffffffffffffffffffffffffffffffffffffffffffffffffffffffff1916827bffffffffffffffffffffffffffffffffffffffffffffffffffffffff1916149050919050565b61194b838383611dfe565b600073ffffffffffffffffffffffffffffffffffffffff168373ffffffffffffffffffffffffffffffffffffffff16141561198e5761198981611e03565b6119cd565b8173ffffffffffffffffffffffffffffffffffffffff168373ffffffffffffffffffffffffffffffffffffffff16146119cc576119cb8382611e4c565b5b5b600073ffffffffffffffffffffffffffffffffffffffff168273ffffffffffffffffffffffffffffffffffffffff161415611a1057611a0b81611fb9565b611a4f565b8273ffffffffffffffffffffffffffffffffffffffff168273ffffffffffffffffffffffffffffffffffffffff1614611a4e57611a4d82826120fc565b5b5b505050565b6000808273ffffffffffffffffffffffffffffffffffffffff163b119050919050565b60606000821415611abf576040518060400160405280600181526020017f30000000000000000000000000000000000000000000000000000000000000008152509050611c1f565b600082905060005b60008214611af1578080611ada906130a3565b915050600a82611aea9190612f25565b9150611ac7565b60008167ffffffffffffffff811115611b33577f4e487b7100000000000000000000000000000000000000000000000000000000600052604160045260246000fd5b6040519080825280601f01601f191660200182016040528015611b655781602001600182028036833780820191505090505b5090505b60008514611c1857600182611b7e9190612f56565b9150600a85611b8d91906130ec565b6030611b999190612ecf565b60f81b818381518110611bd5577f4e487b7100000000000000000000000000000000000000000000000000000000600052603260045260246000fd5b60200101907effffffffffffffffffffffffffffffffffffffffffffffffffffffffffffff1916908160001a905350600a85611c119190612f25565b9450611b69565b8093505050505b919050565b600073ffffffffffffffffffffffffffffffffffffffff168273ffffffffffffffffffffffffffffffffffffffff161415611c94576040517f08c379a0000000000000000000000000000000000000000000000000000000008152600401611c8b90612d0a565b60405180910390fd5b611c9d81610cec565b15611cdd576040517f08c379a0000000000000000000000000000000000000000000000000000000008152600401611cd490612bea565b60405180910390fd5b611ce960008383611611565b6001600360008473ffffffffffffffffffffffffffffffffffffffff1673ffffffffffffffffffffffffffffffffffffffff1681526020019081526020016000206000828254611d399190612ecf565b92505081905550816002600083815260200190815260200160002060006101000a81548173ffffffffffffffffffffffffffffffffffffffff021916908373ffffffffffffffffffffffffffffffffffffffff160217905550808273ffffffffffffffffffffffffffffffffffffffff16600073ffffffffffffffffffffffffffffffffffffffff167fddf252ad1be2c89b69c2b068fc378daa952ba7f163c4a11628f55a4df523b3ef60405160405180910390a4611dfa60008383611621565b5050565b505050565b6008805490506009600083815260200190815260200160002081905550600881908060018154018082558091505060019003906000526020600020016000909190919091505550565b60006001611e598461084e565b611e639190612f56565b9050600060076000848152602001908152602001600020549050818114611f48576000600660008673ffffffffffffffffffffffffffffffffffffffff1673ffffffffffffffffffffffffffffffffffffffff168152602001908152602001600020600084815260200190815260200160002054905080600660008773ffffffffffffffffffffffffffffffffffffffff1673ffffffffffffffffffffffffffffffffffffffff168152602001908152602001600020600084815260200190815260200160002081905550816007600083815260200190815260200160002081905550505b6007600084815260200190815260200160002060009055600660008573ffffffffffffffffffffffffffffffffffffffff1673ffffffffffffffffffffffffffffffffffffffff16815260200190815260200160002060008381526020019081526020016000206000905550505050565b60006001600880549050611fcd9190612f56565b9050600060096000848152602001908152602001600020549050600060088381548110612023577f4e487b7100000000000000000000000000000000000000000000000000000000600052603260045260246000fd5b90600052602060002001549050806008838154811061206b577f4e487b7100000000000000000000000000000000000000000000000000000000600052603260045260246000fd5b9060005260206000200181905550816009600083815260200190815260200160002081905550600960008581526020019081526020016000206000905560088054806120e0577f4e487b7100000000000000000000000000000000000000000000000000000000600052603160045260246000fd5b6001900381819060005260206000200160009055905550505050565b60006121078361084e565b905081600660008573ffffffffffffffffffffffffffffffffffffffff1673ffffffffffffffffffffffffffffffffffffffff168152602001908152602001600020600083815260200190815260200160002081905550806007600084815260200190815260200160002081905550505050565b82805461218790613040565b90600052602060002090601f0160209004810192826121a957600085556121f0565b82601f106121c257805160ff19168380011785556121f0565b828001600101855582156121f0579182015b828111156121ef5782518255916020019190600101906121d4565b5b5090506121fd9190612201565b5090565b5b8082111561221a576000816000905550600101612202565b5090565b600061223161222c84612e2a565b612e05565b90508281526020810184848401111561224957600080fd5b612254848285612ffe565b509392505050565b600061226f61226a84612e5b565b612e05565b90508281526020810184848401111561228757600080fd5b612292848285612ffe565b509392505050565b6000813590506122a98161372f565b92915050565b6000813590506122be81613746565b92915050565b6000813590506122d38161375d565b92915050565b6000815190506122e88161375d565b92915050565b600082601f8301126122ff57600080fd5b813561230f84826020860161221e565b91505092915050565b60008083601f84011261232a57600080fd5b8235905067ffffffffffffffff81111561234357600080fd5b60208301915083600182028301111561235b57600080fd5b9250929050565b600082601f83011261237357600080fd5b813561238384826020860161225c565b91505092915050565b60008135905061239b81613774565b92915050565b6000815190506123b081613774565b92915050565b6000602082840312156123c857600080fd5b60006123d68482850161229a565b91505092915050565b600080604083850312156123f257600080fd5b60006124008582860161229a565b92505060206124118582860161229a565b9150509250929050565b60008060006060848603121561243057600080fd5b600061243e8682870161229a565b935050602061244f8682870161229a565b92505060406124608682870161238c565b9150509250925092565b6000806000806080858703121561248057600080fd5b600061248e8782880161229a565b945050602061249f8782880161229a565b93505060406124b08782880161238c565b925050606085013567ffffffffffffffff8111156124cd57600080fd5b6124d9878288016122ee565b91505092959194509250565b600080604083850312156124f857600080fd5b60006125068582860161229a565b9250506020612517858286016122af565b9150509250929050565b6000806040838503121561253457600080fd5b60006125428582860161229a565b92505060206125538582860161238c565b9150509250929050565b60006020828403121561256f57600080fd5b600061257d848285016122c4565b91505092915050565b60006020828403121561259857600080fd5b60006125a6848285016122d9565b91505092915050565b6000806000806000608086880312156125c757600080fd5b600086013567ffffffffffffffff8111156125e157600080fd5b6125ed88828901612318565b9550955050602086013567ffffffffffffffff81111561260c57600080fd5b61261888828901612362565b935050604086013567ffffffffffffffff81111561263557600080fd5b61264188828901612362565b925050606086013567ffffffffffffffff81111561265e57600080fd5b61266a88828901612362565b9150509295509295909350565b60006020828403121561268957600080fd5b60006126978482850161238c565b91505092915050565b6000602082840312156126b257600080fd5b60006126c0848285016123a1565b91505092915050565b6126d281612f8a565b82525050565b6126e181612f9c565b82525050565b60006126f282612e8c565b6126fc8185612ea2565b935061270c81856020860161300d565b612715816131d9565b840191505092915050565b600061272c8385612eb3565b9350612739838584612ffe565b612742836131d9565b840190509392505050565b600061275882612e97565b6127628185612eb3565b935061277281856020860161300d565b61277b816131d9565b840191505092915050565b600061279182612e97565b61279b8185612ec4565b93506127ab81856020860161300d565b80840191505092915050565b60006127c4602b83612eb3565b91506127cf826131ea565b604082019050919050565b60006127e7603283612eb3565b91506127f282613239565b604082019050919050565b600061280a602583612eb3565b915061281582613288565b604082019050919050565b600061282d601c83612eb3565b9150612838826132d7565b602082019050919050565b6000612850602483612eb3565b915061285b82613300565b604082019050919050565b6000612873601983612eb3565b915061287e8261334f565b602082019050919050565b6000612896602c83612eb3565b91506128a182613378565b604082019050919050565b60006128b9603883612eb3565b91506128c4826133c7565b604082019050919050565b60006128dc602a83612eb3565b91506128e782613416565b604082019050919050565b60006128ff602983612eb3565b915061290a82613465565b604082019050919050565b6000612922602e83612eb3565b915061292d826134b4565b604082019050919050565b6000612945601583612eb3565b915061295082613503565b602082019050919050565b6000612968602083612eb3565b91506129738261352c565b602082019050919050565b600061298b603183612eb3565b915061299682613555565b604082019050919050565b60006129ae602c83612eb3565b91506129b9826135a4565b604082019050919050565b60006129d1602f83612eb3565b91506129dc826135f3565b604082019050919050565b60006129f4602183612eb3565b91506129ff82613642565b604082019050919050565b6000612a17603183612eb3565b9150612a2282613691565b604082019050919050565b6000612a3a602c83612eb3565b9150612a45826136e0565b604082019050919050565b612a5981612ff4565b82525050565b6000612a6b8285612786565b9150612a778284612786565b91508190509392505050565b6000602082019050612a9860008301846126c9565b92915050565b6000608082019050612ab360008301876126c9565b612ac060208301866126c9565b612acd6040830185612a50565b8181036060830152612adf81846126e7565b905095945050505050565b6000602082019050612aff60008301846126d8565b92915050565b60006080820190508181036000830152612b20818789612720565b90508181036020830152612b34818661274d565b90508181036040830152612b48818561274d565b90508181036060830152612b5c818461274d565b90509695505050505050565b60006020820190508181036000830152612b82818461274d565b905092915050565b60006020820190508181036000830152612ba3816127b7565b9050919050565b60006020820190508181036000830152612bc3816127da565b9050919050565b60006020820190508181036000830152612be3816127fd565b9050919050565b60006020820190508181036000830152612c0381612820565b9050919050565b60006020820190508181036000830152612c2381612843565b9050919050565b60006020820190508181036000830152612c4381612866565b9050919050565b60006020820190508181036000830152612c6381612889565b9050919050565b60006020820190508181036000830152612c83816128ac565b9050919050565b60006020820190508181036000830152612ca3816128cf565b9050919050565b60006020820190508181036000830152612cc3816128f2565b9050919050565b60006020820190508181036000830152612ce381612915565b9050919050565b60006020820190508181036000830152612d0381612938565b9050919050565b60006020820190508181036000830152612d238161295b565b9050919050565b60006020820190508181036000830152612d438161297e565b9050919050565b60006020820190508181036000830152612d63816129a1565b9050919050565b60006020820190508181036000830152612d83816129c4565b9050919050565b60006020820190508181036000830152612da3816129e7565b9050919050565b60006020820190508181036000830152612dc381612a0a565b9050919050565b60006020820190508181036000830152612de381612a2d565b9050919050565b6000602082019050612dff6000830184612a50565b92915050565b6000612e0f612e20565b9050612e1b8282613072565b919050565b6000604051905090565b600067ffffffffffffffff821115612e4557612e446131aa565b5b612e4e826131d9565b9050602081019050919050565b600067ffffffffffffffff821115612e7657612e756131aa565b5b612e7f826131d9565b9050602081019050919050565b600081519050919050565b600081519050919050565b600082825260208201905092915050565b600082825260208201905092915050565b600081905092915050565b6000612eda82612ff4565b9150612ee583612ff4565b9250827fffffffffffffffffffffffffffffffffffffffffffffffffffffffffffffffff03821115612f1a57612f1961311d565b5b828201905092915050565b6000612f3082612ff4565b9150612f3b83612ff4565b925082612f4b57612f4a61314c565b5b828204905092915050565b6000612f6182612ff4565b9150612f6c83612ff4565b925082821015612f7f57612f7e61311d565b5b828203905092915050565b6000612f9582612fd4565b9050919050565b60008115159050919050565b60007fffffffff0000000000000000000000000000000000000000000000000000000082169050919050565b600073ffffffffffffffffffffffffffffffffffffffff82169050919050565b6000819050919050565b82818337600083830152505050565b60005b8381101561302b578082015181840152602081019050613010565b8381111561303a576000848401525b50505050565b6000600282049050600182168061305857607f821691505b6020821081141561306c5761306b61317b565b5b50919050565b61307b826131d9565b810181811067ffffffffffffffff8211171561309a576130996131aa565b5b80604052505050565b60006130ae82612ff4565b91507fffffffffffffffffffffffffffffffffffffffffffffffffffffffffffffffff8214156130e1576130e061311d565b5b600182019050919050565b60006130f782612ff4565b915061310283612ff4565b9250826131125761311161314c565b5b828206905092915050565b7f4e487b7100000000000000000000000000000000000000000000000000000000600052601160045260246000fd5b7f4e487b7100000000000000000000000000000000000000000000000000000000600052601260045260246000fd5b7f4e487b7100000000000000000000000000000000000000000000000000000000600052602260045260246000fd5b7f4e487b7100000000000000000000000000000000000000000000000000000000600052604160045260246000fd5b6000601f19601f8301169050919050565b7f455243373231456e756d657261626c653a206f776e657220696e646578206f7560008201527f74206f6620626f756e6473000000000000000000000000000000000000000000602082015250565b7f4552433732313a207472616e7366657220746f206e6f6e20455243373231526560008201527f63656976657220696d706c656d656e7465720000000000000000000000000000602082015250565b7f4552433732313a207472616e736665722066726f6d20696e636f72726563742060008201527f6f776e6572000000000000000000000000000000000000000000000000000000602082015250565b7f4552433732313a20746f6b656e20616c7265616479206d696e74656400000000600082015250565b7f4552433732313a207472616e7366657220746f20746865207a65726f2061646460008201527f7265737300000000000000000000000000000000000000000000000000000000602082015250565b7f4552433732313a20617070726f766520746f2063616c6c657200000000000000600082015250565b7f4552433732313a206f70657261746f7220717565727920666f72206e6f6e657860008201527f697374656e7420746f6b656e0000000000000000000000000000000000000000602082015250565b7f4552433732313a20617070726f76652063616c6c6572206973206e6f74206f7760008201527f6e6572206e6f7220617070726f76656420666f7220616c6c0000000000000000602082015250565b7f4552433732313a2062616c616e636520717565727920666f7220746865207a6560008201527f726f206164647265737300000000000000000000000000000000000000000000602082015250565b7f4552433732313a206f776e657220717565727920666f72206e6f6e657869737460008201527f656e7420746f6b656e0000000000000000000000000000000000000000000000602082015250565b7f45524337323155524953746f726167653a2055524920736574206f66206e6f6e60008201527f6578697374656e7420746f6b656e000000000000000000000000000000000000602082015250565b7f596f75206e65656420746f206d696e74207a5342540000000000000000000000600082015250565b7f4552433732313a206d696e7420746f20746865207a65726f2061646472657373600082015250565b7f45524337323155524953746f726167653a2055524920717565727920666f722060008201527f6e6f6e6578697374656e7420746f6b656e000000000000000000000000000000602082015250565b7f4552433732313a20617070726f76656420717565727920666f72206e6f6e657860008201527f697374656e7420746f6b656e0000000000000000000000000000000000000000602082015250565b7f4552433732314d657461646174613a2055524920717565727920666f72206e6f60008201527f6e6578697374656e7420746f6b656e0000000000000000000000000000000000602082015250565b7f4552433732313a20617070726f76616c20746f2063757272656e74206f776e6560008201527f7200000000000000000000000000000000000000000000000000000000000000602082015250565b7f4552433732313a207472616e736665722063616c6c6572206973206e6f74206f60008201527f776e6572206e6f7220617070726f766564000000000000000000000000000000602082015250565b7f455243373231456e756d657261626c653a20676c6f62616c20696e646578206f60008201527f7574206f6620626f756e64730000000000000000000000000000000000000000602082015250565b61373881612f8a565b811461374357600080fd5b50565b61374f81612f9c565b811461375a57600080fd5b50565b61376681612fa8565b811461377157600080fd5b50565b61377d81612ff4565b811461378857600080fd5b5056fea2646970667358221220622f5e2eb82196168073fd4f489245db94b5465dc6423636bc0f61ff2417d3c264736f6c63430008040033",
  "linkReferences": {},
  "deployedLinkReferences": {}
}